{
	"contracts/upload.sol": {
		"upload": {
			"abi": [
				{
					"inputs": [],
					"stateMutability": "nonpayable",
					"type": "constructor"
				},
				{
					"inputs": [],
					"name": "get",
					"outputs": [
						{
							"components": [
								{
									"internalType": "string",
									"name": "recordType",
									"type": "string"
								},
								{
									"internalType": "string",
									"name": "recordIPFSFilePath",
									"type": "string"
								}
							],
							"internalType": "struct upload.Record[]",
							"name": "",
							"type": "tuple[]"
						}
					],
					"stateMutability": "view",
					"type": "function"
				},
				{
					"inputs": [
						{
							"internalType": "string",
							"name": "_recordType",
							"type": "string"
						},
						{
							"internalType": "string",
							"name": "_recordIPFSFilePath",
							"type": "string"
						}
					],
					"name": "push",
					"outputs": [],
					"stateMutability": "nonpayable",
					"type": "function"
				},
				{
					"inputs": [
						{
							"internalType": "address",
							"name": "",
							"type": "address"
						},
						{
							"internalType": "uint256",
							"name": "",
							"type": "uint256"
						}
					],
					"name": "records",
					"outputs": [
						{
							"internalType": "string",
							"name": "recordType",
							"type": "string"
						},
						{
							"internalType": "string",
							"name": "recordIPFSFilePath",
							"type": "string"
						}
					],
					"stateMutability": "view",
					"type": "function"
				}
			],
			"devdoc": {
				"kind": "dev",
				"methods": {},
				"version": 1
			},
			"evm": {
				"assembly": "    /* \"contracts/upload.sol\":60:985  contract upload{... */\n  mstore(0x40, 0xa0)\n    /* \"contracts/upload.sol\":259:309  constructor(){... */\n  callvalue\n  dup1\n  iszero\n  tag_1\n  jumpi\n  0x00\n  dup1\n  revert\ntag_1:\n  pop\n    /* \"contracts/upload.sol\":291:301  msg.sender */\n  caller\n    /* \"contracts/upload.sol\":283:301  onwer = msg.sender */\n  0xffffffffffffffffffffffffffffffffffffffff\n  and\n  0x80\n  dup2\n  0xffffffffffffffffffffffffffffffffffffffff\n  and\n  dup2\n  mstore\n  pop\n  pop\n    /* \"contracts/upload.sol\":60:985  contract upload{... */\n  mload(0x80)\n  codecopy(0x00, dataOffset(sub_0), dataSize(sub_0))\n  0x00\n  assignImmutable(\"0x5c4c6aa067b6f8e6cb38e6ab843832a94d1712d661a04d73c517d6a1931a9e5d\")\n  return(0x00, dataSize(sub_0))\nstop\n\nsub_0: assembly {\n        /* \"contracts/upload.sol\":60:985  contract upload{... */\n      mstore(0x40, 0x80)\n      callvalue\n      dup1\n      iszero\n      tag_1\n      jumpi\n      0x00\n      dup1\n      revert\n    tag_1:\n      pop\n      jumpi(tag_2, lt(calldatasize, 0x04))\n      shr(0xe0, calldataload(0x00))\n      dup1\n      0x6d4ce63c\n      eq\n      tag_3\n      jumpi\n      dup1\n      0x82a6c0ac\n      eq\n      tag_4\n      jumpi\n      dup1\n      0xf8761376\n      eq\n      tag_5\n      jumpi\n    tag_2:\n      0x00\n      dup1\n      revert\n        /* \"contracts/upload.sol\":886:982  function get() public view returns(Record[] memory){... */\n    tag_3:\n      tag_6\n      tag_7\n      jump\t// in\n    tag_6:\n      mload(0x40)\n      tag_8\n      swap2\n      swap1\n      tag_9\n      jump\t// in\n    tag_8:\n      mload(0x40)\n      dup1\n      swap2\n      sub\n      swap1\n      return\n        /* \"contracts/upload.sol\":175:218  mapping(address => Record[]) public records */\n    tag_4:\n      tag_10\n      0x04\n      dup1\n      calldatasize\n      sub\n      dup2\n      add\n      swap1\n      tag_11\n      swap2\n      swap1\n      tag_12\n      jump\t// in\n    tag_11:\n      tag_13\n      jump\t// in\n    tag_10:\n      mload(0x40)\n      tag_14\n      swap3\n      swap2\n      swap1\n      tag_15\n      jump\t// in\n    tag_14:\n      mload(0x40)\n      dup1\n      swap2\n      sub\n      swap1\n      return\n        /* \"contracts/upload.sol\":317:878  function push(string memory _recordType, string memory _recordIPFSFilePath) public {... */\n    tag_5:\n      tag_16\n      0x04\n      dup1\n      calldatasize\n      sub\n      dup2\n      add\n      swap1\n      tag_17\n      swap2\n      swap1\n      tag_18\n      jump\t// in\n    tag_17:\n      tag_19\n      jump\t// in\n    tag_16:\n      stop\n        /* \"contracts/upload.sol\":886:982  function get() public view returns(Record[] memory){... */\n    tag_7:\n        /* \"contracts/upload.sol\":921:936  Record[] memory */\n      0x60\n        /* \"contracts/upload.sol\":955:962  records */\n      0x00\n        /* \"contracts/upload.sol\":955:974  records[msg.sender] */\n      dup1\n        /* \"contracts/upload.sol\":963:973  msg.sender */\n      caller\n        /* \"contracts/upload.sol\":955:974  records[msg.sender] */\n      0xffffffffffffffffffffffffffffffffffffffff\n      and\n      0xffffffffffffffffffffffffffffffffffffffff\n      and\n      dup2\n      mstore\n      0x20\n      add\n      swap1\n      dup2\n      mstore\n      0x20\n      add\n      0x00\n      keccak256\n        /* \"contracts/upload.sol\":948:974  return records[msg.sender] */\n      dup1\n      sload\n      dup1\n      0x20\n      mul\n      0x20\n      add\n      mload(0x40)\n      swap1\n      dup2\n      add\n      0x40\n      mstore\n      dup1\n      swap3\n      swap2\n      swap1\n      dup2\n      dup2\n      mstore\n      0x20\n      add\n      0x00\n      swap1\n    tag_21:\n      dup3\n      dup3\n      lt\n      iszero\n      tag_22\n      jumpi\n      dup4\n      dup3\n      swap1\n      0x00\n      mstore\n      keccak256(0x00, 0x20)\n      swap1\n      0x02\n      mul\n      add\n      mload(0x40)\n      dup1\n      0x40\n      add\n      0x40\n      mstore\n      swap1\n      dup2\n      0x00\n      dup3\n      add\n      dup1\n      sload\n      tag_24\n      swap1\n      tag_25\n      jump\t// in\n    tag_24:\n      dup1\n      0x1f\n      add\n      0x20\n      dup1\n      swap2\n      div\n      mul\n      0x20\n      add\n      mload(0x40)\n      swap1\n      dup2\n      add\n      0x40\n      mstore\n      dup1\n      swap3\n      swap2\n      swap1\n      dup2\n      dup2\n      mstore\n      0x20\n      add\n      dup3\n      dup1\n      sload\n      tag_26\n      swap1\n      tag_25\n      jump\t// in\n    tag_26:\n      dup1\n      iszero\n      tag_27\n      jumpi\n      dup1\n      0x1f\n      lt\n      tag_28\n      jumpi\n      0x0100\n      dup1\n      dup4\n      sload\n      div\n      mul\n      dup4\n      mstore\n      swap2\n      0x20\n      add\n      swap2\n      jump(tag_27)\n    tag_28:\n      dup3\n      add\n      swap2\n      swap1\n      0x00\n      mstore\n      keccak256(0x00, 0x20)\n      swap1\n    tag_29:\n      dup2\n      sload\n      dup2\n      mstore\n      swap1\n      0x01\n      add\n      swap1\n      0x20\n      add\n      dup1\n      dup4\n      gt\n      tag_29\n      jumpi\n      dup3\n      swap1\n      sub\n      0x1f\n      and\n      dup3\n      add\n      swap2\n    tag_27:\n      pop\n      pop\n      pop\n      pop\n      pop\n      dup2\n      mstore\n      0x20\n      add\n      0x01\n      dup3\n      add\n      dup1\n      sload\n      tag_30\n      swap1\n      tag_25\n      jump\t// in\n    tag_30:\n      dup1\n      0x1f\n      add\n      0x20\n      dup1\n      swap2\n      div\n      mul\n      0x20\n      add\n      mload(0x40)\n      swap1\n      dup2\n      add\n      0x40\n      mstore\n      dup1\n      swap3\n      swap2\n      swap1\n      dup2\n      dup2\n      mstore\n      0x20\n      add\n      dup3\n      dup1\n      sload\n      tag_31\n      swap1\n      tag_25\n      jump\t// in\n    tag_31:\n      dup1\n      iszero\n      tag_32\n      jumpi\n      dup1\n      0x1f\n      lt\n      tag_33\n      jumpi\n      0x0100\n      dup1\n      dup4\n      sload\n      div\n      mul\n      dup4\n      mstore\n      swap2\n      0x20\n      add\n      swap2\n      jump(tag_32)\n    tag_33:\n      dup3\n      add\n      swap2\n      swap1\n      0x00\n      mstore\n      keccak256(0x00, 0x20)\n      swap1\n    tag_34:\n      dup2\n      sload\n      dup2\n      mstore\n      swap1\n      0x01\n      add\n      swap1\n      0x20\n      add\n      dup1\n      dup4\n      gt\n      tag_34\n      jumpi\n      dup3\n      swap1\n      sub\n      0x1f\n      and\n      dup3\n      add\n      swap2\n    tag_32:\n      pop\n      pop\n      pop\n      pop\n      pop\n      dup2\n      mstore\n      pop\n      pop\n      dup2\n      mstore\n      0x20\n      add\n      swap1\n      0x01\n      add\n      swap1\n      jump(tag_21)\n    tag_22:\n      pop\n      pop\n      pop\n      pop\n      swap1\n      pop\n        /* \"contracts/upload.sol\":886:982  function get() public view returns(Record[] memory){... */\n      swap1\n      jump\t// out\n        /* \"contracts/upload.sol\":175:218  mapping(address => Record[]) public records */\n    tag_13:\n      mstore(0x20, 0x00)\n      dup2\n      0x00\n      mstore\n      keccak256(0x00, 0x40)\n      dup2\n      dup2\n      sload\n      dup2\n      lt\n      tag_35\n      jumpi\n      0x00\n      dup1\n      revert\n    tag_35:\n      swap1\n      0x00\n      mstore\n      keccak256(0x00, 0x20)\n      swap1\n      0x02\n      mul\n      add\n      0x00\n      swap2\n      pop\n      swap2\n      pop\n      pop\n      dup1\n      0x00\n      add\n      dup1\n      sload\n      tag_37\n      swap1\n      tag_25\n      jump\t// in\n    tag_37:\n      dup1\n      0x1f\n      add\n      0x20\n      dup1\n      swap2\n      div\n      mul\n      0x20\n      add\n      mload(0x40)\n      swap1\n      dup2\n      add\n      0x40\n      mstore\n      dup1\n      swap3\n      swap2\n      swap1\n      dup2\n      dup2\n      mstore\n      0x20\n      add\n      dup3\n      dup1\n      sload\n      tag_38\n      swap1\n      tag_25\n      jump\t// in\n    tag_38:\n      dup1\n      iszero\n      tag_39\n      jumpi\n      dup1\n      0x1f\n      lt\n      tag_40\n      jumpi\n      0x0100\n      dup1\n      dup4\n      sload\n      div\n      mul\n      dup4\n      mstore\n      swap2\n      0x20\n      add\n      swap2\n      jump(tag_39)\n    tag_40:\n      dup3\n      add\n      swap2\n      swap1\n      0x00\n      mstore\n      keccak256(0x00, 0x20)\n      swap1\n    tag_41:\n      dup2\n      sload\n      dup2\n      mstore\n      swap1\n      0x01\n      add\n      swap1\n      0x20\n      add\n      dup1\n      dup4\n      gt\n      tag_41\n      jumpi\n      dup3\n      swap1\n      sub\n      0x1f\n      and\n      dup3\n      add\n      swap2\n    tag_39:\n      pop\n      pop\n      pop\n      pop\n      pop\n      swap1\n      dup1\n      0x01\n      add\n      dup1\n      sload\n      tag_42\n      swap1\n      tag_25\n      jump\t// in\n    tag_42:\n      dup1\n      0x1f\n      add\n      0x20\n      dup1\n      swap2\n      div\n      mul\n      0x20\n      add\n      mload(0x40)\n      swap1\n      dup2\n      add\n      0x40\n      mstore\n      dup1\n      swap3\n      swap2\n      swap1\n      dup2\n      dup2\n      mstore\n      0x20\n      add\n      dup3\n      dup1\n      sload\n      tag_43\n      swap1\n      tag_25\n      jump\t// in\n    tag_43:\n      dup1\n      iszero\n      tag_44\n      jumpi\n      dup1\n      0x1f\n      lt\n      tag_45\n      jumpi\n      0x0100\n      dup1\n      dup4\n      sload\n      div\n      mul\n      dup4\n      mstore\n      swap2\n      0x20\n      add\n      swap2\n      jump(tag_44)\n    tag_45:\n      dup3\n      add\n      swap2\n      swap1\n      0x00\n      mstore\n      keccak256(0x00, 0x20)\n      swap1\n    tag_46:\n      dup2\n      sload\n      dup2\n      mstore\n      swap1\n      0x01\n      add\n      swap1\n      0x20\n      add\n      dup1\n      dup4\n      gt\n      tag_46\n      jumpi\n      dup3\n      swap1\n      sub\n      0x1f\n      and\n      dup3\n      add\n      swap2\n    tag_44:\n      pop\n      pop\n      pop\n      pop\n      pop\n      swap1\n      pop\n      dup3\n      jump\t// out\n        /* \"contracts/upload.sol\":317:878  function push(string memory _recordType, string memory _recordIPFSFilePath) public {... */\n    tag_19:\n        /* \"contracts/upload.sol\":411:425  bool isMedical */\n      0x00\n        /* \"contracts/upload.sol\":482:509  abi.encodePacked(\"medical\") */\n      add(0x20, mload(0x40))\n      tag_48\n      swap1\n      tag_49\n      jump\t// in\n    tag_48:\n      mload(0x40)\n      0x20\n      dup2\n      dup4\n      sub\n      sub\n      dup2\n      mstore\n      swap1\n      0x40\n      mstore\n        /* \"contracts/upload.sol\":472:510  keccak256(abi.encodePacked(\"medical\")) */\n      dup1\n      mload\n      swap1\n      0x20\n      add\n      keccak256\n        /* \"contracts/upload.sol\":455:466  _recordType */\n      dup4\n        /* \"contracts/upload.sol\":438:467  abi.encodePacked(_recordType) */\n      add(0x20, mload(0x40))\n      tag_50\n      swap2\n      swap1\n      tag_51\n      jump\t// in\n    tag_50:\n      mload(0x40)\n      0x20\n      dup2\n      dup4\n      sub\n      sub\n      dup2\n      mstore\n      swap1\n      0x40\n      mstore\n        /* \"contracts/upload.sol\":428:468  keccak256(abi.encodePacked(_recordType)) */\n      dup1\n      mload\n      swap1\n      0x20\n      add\n      keccak256\n        /* \"contracts/upload.sol\":428:510  keccak256(abi.encodePacked(_recordType)) == keccak256(abi.encodePacked(\"medical\")) */\n      eq\n        /* \"contracts/upload.sol\":411:510  bool isMedical = keccak256(abi.encodePacked(_recordType)) == keccak256(abi.encodePacked(\"medical\")) */\n      swap1\n      pop\n        /* \"contracts/upload.sol\":521:536  bool isProperty */\n      0x00\n        /* \"contracts/upload.sol\":593:621  abi.encodePacked(\"property\") */\n      add(0x20, mload(0x40))\n      tag_52\n      swap1\n      tag_53\n      jump\t// in\n    tag_52:\n      mload(0x40)\n      0x20\n      dup2\n      dup4\n      sub\n      sub\n      dup2\n      mstore\n      swap1\n      0x40\n      mstore\n        /* \"contracts/upload.sol\":583:622  keccak256(abi.encodePacked(\"property\")) */\n      dup1\n      mload\n      swap1\n      0x20\n      add\n      keccak256\n        /* \"contracts/upload.sol\":566:577  _recordType */\n      dup5\n        /* \"contracts/upload.sol\":549:578  abi.encodePacked(_recordType) */\n      add(0x20, mload(0x40))\n      tag_54\n      swap2\n      swap1\n      tag_51\n      jump\t// in\n    tag_54:\n      mload(0x40)\n      0x20\n      dup2\n      dup4\n      sub\n      sub\n      dup2\n      mstore\n      swap1\n      0x40\n      mstore\n        /* \"contracts/upload.sol\":539:579  keccak256(abi.encodePacked(_recordType)) */\n      dup1\n      mload\n      swap1\n      0x20\n      add\n      keccak256\n        /* \"contracts/upload.sol\":539:622  keccak256(abi.encodePacked(_recordType)) == keccak256(abi.encodePacked(\"property\")) */\n      eq\n        /* \"contracts/upload.sol\":521:622  bool isProperty = keccak256(abi.encodePacked(_recordType)) == keccak256(abi.encodePacked(\"property\")) */\n      swap1\n      pop\n        /* \"contracts/upload.sol\":643:652  isMedical */\n      dup2\n        /* \"contracts/upload.sol\":643:666  isMedical || isProperty */\n      dup1\n      tag_55\n      jumpi\n      pop\n        /* \"contracts/upload.sol\":656:666  isProperty */\n      dup1\n        /* \"contracts/upload.sol\":643:666  isMedical || isProperty */\n    tag_55:\n        /* \"contracts/upload.sol\":635:711  require(isMedical || isProperty, \"File type not medical or property record\") */\n      tag_56\n      jumpi\n      mload(0x40)\n      0x08c379a000000000000000000000000000000000000000000000000000000000\n      dup2\n      mstore\n      0x04\n      add\n      tag_57\n      swap1\n      tag_58\n      jump\t// in\n    tag_57:\n      mload(0x40)\n      dup1\n      swap2\n      sub\n      swap1\n      revert\n    tag_56:\n        /* \"contracts/upload.sol\":767:768  0 */\n      0x00\n        /* \"contracts/upload.sol\":736:755  _recordIPFSFilePath */\n      dup4\n        /* \"contracts/upload.sol\":730:763  bytes(_recordIPFSFilePath).length */\n      mload\n        /* \"contracts/upload.sol\":730:768  bytes(_recordIPFSFilePath).length != 0 */\n      sub\n        /* \"contracts/upload.sol\":722:791  require(bytes(_recordIPFSFilePath).length != 0, \"File path is empty\") */\n      tag_59\n      jumpi\n      mload(0x40)\n      0x08c379a000000000000000000000000000000000000000000000000000000000\n      dup2\n      mstore\n      0x04\n      add\n      tag_60\n      swap1\n      tag_61\n      jump\t// in\n    tag_60:\n      mload(0x40)\n      dup1\n      swap2\n      sub\n      swap1\n      revert\n    tag_59:\n        /* \"contracts/upload.sol\":804:811  records */\n      0x00\n        /* \"contracts/upload.sol\":804:823  records[msg.sender] */\n      dup1\n        /* \"contracts/upload.sol\":812:822  msg.sender */\n      caller\n        /* \"contracts/upload.sol\":804:823  records[msg.sender] */\n      0xffffffffffffffffffffffffffffffffffffffff\n      and\n      0xffffffffffffffffffffffffffffffffffffffff\n      and\n      dup2\n      mstore\n      0x20\n      add\n      swap1\n      dup2\n      mstore\n      0x20\n      add\n      0x00\n      keccak256\n        /* \"contracts/upload.sol\":829:869  Record(_recordType, _recordIPFSFilePath) */\n      mload(0x40)\n      dup1\n      0x40\n      add\n      0x40\n      mstore\n      dup1\n        /* \"contracts/upload.sol\":836:847  _recordType */\n      dup7\n        /* \"contracts/upload.sol\":829:869  Record(_recordType, _recordIPFSFilePath) */\n      dup2\n      mstore\n      0x20\n      add\n        /* \"contracts/upload.sol\":849:868  _recordIPFSFilePath */\n      dup6\n        /* \"contracts/upload.sol\":829:869  Record(_recordType, _recordIPFSFilePath) */\n      dup2\n      mstore\n      pop\n        /* \"contracts/upload.sol\":804:870  records[msg.sender].push(Record(_recordType, _recordIPFSFilePath)) */\n      swap1\n      dup1\n      0x01\n      dup2\n      sload\n      add\n      dup1\n      dup3\n      sstore\n      dup1\n      swap2\n      pop\n      pop\n      0x01\n      swap1\n      sub\n      swap1\n      0x00\n      mstore\n      keccak256(0x00, 0x20)\n      swap1\n      0x02\n      mul\n      add\n      0x00\n      swap1\n      swap2\n      swap1\n      swap2\n      swap1\n      swap2\n      pop\n      0x00\n      dup3\n      add\n      mload\n      dup2\n      0x00\n      add\n      swap1\n      dup2\n      tag_63\n      swap2\n      swap1\n      tag_64\n      jump\t// in\n    tag_63:\n      pop\n      0x20\n      dup3\n      add\n      mload\n      dup2\n      0x01\n      add\n      swap1\n      dup2\n      tag_65\n      swap2\n      swap1\n      tag_64\n      jump\t// in\n    tag_65:\n      pop\n      pop\n      pop\n        /* \"contracts/upload.sol\":400:878  {... */\n      pop\n      pop\n        /* \"contracts/upload.sol\":317:878  function push(string memory _recordType, string memory _recordIPFSFilePath) public {... */\n      pop\n      pop\n      jump\t// out\n        /* \"#utility.yul\":7:142   */\n    tag_66:\n        /* \"#utility.yul\":95:101   */\n      0x00\n        /* \"#utility.yul\":129:134   */\n      dup2\n        /* \"#utility.yul\":123:135   */\n      mload\n        /* \"#utility.yul\":113:135   */\n      swap1\n      pop\n        /* \"#utility.yul\":7:142   */\n      swap2\n      swap1\n      pop\n      jump\t// out\n        /* \"#utility.yul\":148:353   */\n    tag_67:\n        /* \"#utility.yul\":268:279   */\n      0x00\n        /* \"#utility.yul\":302:308   */\n      dup3\n        /* \"#utility.yul\":297:300   */\n      dup3\n        /* \"#utility.yul\":290:309   */\n      mstore\n        /* \"#utility.yul\":342:346   */\n      0x20\n        /* \"#utility.yul\":337:340   */\n      dup3\n        /* \"#utility.yul\":333:347   */\n      add\n        /* \"#utility.yul\":318:347   */\n      swap1\n      pop\n        /* \"#utility.yul\":148:353   */\n      swap3\n      swap2\n      pop\n      pop\n      jump\t// out\n        /* \"#utility.yul\":359:512   */\n    tag_68:\n        /* \"#utility.yul\":447:451   */\n      0x00\n        /* \"#utility.yul\":470:473   */\n      dup2\n        /* \"#utility.yul\":462:473   */\n      swap1\n      pop\n        /* \"#utility.yul\":500:504   */\n      0x20\n        /* \"#utility.yul\":495:498   */\n      dup3\n        /* \"#utility.yul\":491:505   */\n      add\n        /* \"#utility.yul\":483:505   */\n      swap1\n      pop\n        /* \"#utility.yul\":359:512   */\n      swap2\n      swap1\n      pop\n      jump\t// out\n        /* \"#utility.yul\":518:617   */\n    tag_69:\n        /* \"#utility.yul\":570:576   */\n      0x00\n        /* \"#utility.yul\":604:609   */\n      dup2\n        /* \"#utility.yul\":598:610   */\n      mload\n        /* \"#utility.yul\":588:610   */\n      swap1\n      pop\n        /* \"#utility.yul\":518:617   */\n      swap2\n      swap1\n      pop\n      jump\t// out\n        /* \"#utility.yul\":623:782   */\n    tag_70:\n        /* \"#utility.yul\":697:708   */\n      0x00\n        /* \"#utility.yul\":731:737   */\n      dup3\n        /* \"#utility.yul\":726:729   */\n      dup3\n        /* \"#utility.yul\":719:738   */\n      mstore\n        /* \"#utility.yul\":771:775   */\n      0x20\n        /* \"#utility.yul\":766:769   */\n      dup3\n        /* \"#utility.yul\":762:776   */\n      add\n        /* \"#utility.yul\":747:776   */\n      swap1\n      pop\n        /* \"#utility.yul\":623:782   */\n      swap3\n      swap2\n      pop\n      pop\n      jump\t// out\n        /* \"#utility.yul\":788:927   */\n    tag_71:\n        /* \"#utility.yul\":877:883   */\n      dup3\n        /* \"#utility.yul\":872:875   */\n      dup2\n        /* \"#utility.yul\":867:870   */\n      dup4\n        /* \"#utility.yul\":861:884   */\n      mcopy\n        /* \"#utility.yul\":918:919   */\n      0x00\n        /* \"#utility.yul\":909:915   */\n      dup4\n        /* \"#utility.yul\":904:907   */\n      dup4\n        /* \"#utility.yul\":900:916   */\n      add\n        /* \"#utility.yul\":893:920   */\n      mstore\n        /* \"#utility.yul\":788:927   */\n      pop\n      pop\n      pop\n      jump\t// out\n        /* \"#utility.yul\":933:1035   */\n    tag_72:\n        /* \"#utility.yul\":974:980   */\n      0x00\n        /* \"#utility.yul\":1025:1027   */\n      0x1f\n        /* \"#utility.yul\":1021:1028   */\n      not\n        /* \"#utility.yul\":1016:1018   */\n      0x1f\n        /* \"#utility.yul\":1009:1014   */\n      dup4\n        /* \"#utility.yul\":1005:1019   */\n      add\n        /* \"#utility.yul\":1001:1029   */\n      and\n        /* \"#utility.yul\":991:1029   */\n      swap1\n      pop\n        /* \"#utility.yul\":933:1035   */\n      swap2\n      swap1\n      pop\n      jump\t// out\n        /* \"#utility.yul\":1041:1398   */\n    tag_73:\n        /* \"#utility.yul\":1119:1122   */\n      0x00\n        /* \"#utility.yul\":1147:1186   */\n      tag_134\n        /* \"#utility.yul\":1180:1185   */\n      dup3\n        /* \"#utility.yul\":1147:1186   */\n      tag_69\n      jump\t// in\n    tag_134:\n        /* \"#utility.yul\":1202:1263   */\n      tag_135\n        /* \"#utility.yul\":1256:1262   */\n      dup2\n        /* \"#utility.yul\":1251:1254   */\n      dup6\n        /* \"#utility.yul\":1202:1263   */\n      tag_70\n      jump\t// in\n    tag_135:\n        /* \"#utility.yul\":1195:1263   */\n      swap4\n      pop\n        /* \"#utility.yul\":1272:1337   */\n      tag_136\n        /* \"#utility.yul\":1330:1336   */\n      dup2\n        /* \"#utility.yul\":1325:1328   */\n      dup6\n        /* \"#utility.yul\":1318:1322   */\n      0x20\n        /* \"#utility.yul\":1311:1316   */\n      dup7\n        /* \"#utility.yul\":1307:1323   */\n      add\n        /* \"#utility.yul\":1272:1337   */\n      tag_71\n      jump\t// in\n    tag_136:\n        /* \"#utility.yul\":1362:1391   */\n      tag_137\n        /* \"#utility.yul\":1384:1390   */\n      dup2\n        /* \"#utility.yul\":1362:1391   */\n      tag_72\n      jump\t// in\n    tag_137:\n        /* \"#utility.yul\":1357:1360   */\n      dup5\n        /* \"#utility.yul\":1353:1392   */\n      add\n        /* \"#utility.yul\":1346:1392   */\n      swap2\n      pop\n        /* \"#utility.yul\":1123:1398   */\n      pop\n        /* \"#utility.yul\":1041:1398   */\n      swap3\n      swap2\n      pop\n      pop\n      jump\t// out\n        /* \"#utility.yul\":1456:2135   */\n    tag_74:\n        /* \"#utility.yul\":1557:1560   */\n      0x00\n        /* \"#utility.yul\":1593:1597   */\n      0x40\n        /* \"#utility.yul\":1588:1591   */\n      dup4\n        /* \"#utility.yul\":1584:1598   */\n      add\n        /* \"#utility.yul\":1686:1690   */\n      0x00\n        /* \"#utility.yul\":1679:1684   */\n      dup4\n        /* \"#utility.yul\":1675:1691   */\n      add\n        /* \"#utility.yul\":1669:1692   */\n      mload\n        /* \"#utility.yul\":1739:1742   */\n      dup5\n        /* \"#utility.yul\":1733:1737   */\n      dup3\n        /* \"#utility.yul\":1729:1743   */\n      sub\n        /* \"#utility.yul\":1722:1726   */\n      0x00\n        /* \"#utility.yul\":1717:1720   */\n      dup7\n        /* \"#utility.yul\":1713:1727   */\n      add\n        /* \"#utility.yul\":1706:1744   */\n      mstore\n        /* \"#utility.yul\":1765:1838   */\n      tag_139\n        /* \"#utility.yul\":1833:1837   */\n      dup3\n        /* \"#utility.yul\":1819:1831   */\n      dup3\n        /* \"#utility.yul\":1765:1838   */\n      tag_73\n      jump\t// in\n    tag_139:\n        /* \"#utility.yul\":1757:1838   */\n      swap2\n      pop\n        /* \"#utility.yul\":1608:1849   */\n      pop\n        /* \"#utility.yul\":1945:1949   */\n      0x20\n        /* \"#utility.yul\":1938:1943   */\n      dup4\n        /* \"#utility.yul\":1934:1950   */\n      add\n        /* \"#utility.yul\":1928:1951   */\n      mload\n        /* \"#utility.yul\":1998:2001   */\n      dup5\n        /* \"#utility.yul\":1992:1996   */\n      dup3\n        /* \"#utility.yul\":1988:2002   */\n      sub\n        /* \"#utility.yul\":1981:1985   */\n      0x20\n        /* \"#utility.yul\":1976:1979   */\n      dup7\n        /* \"#utility.yul\":1972:1986   */\n      add\n        /* \"#utility.yul\":1965:2003   */\n      mstore\n        /* \"#utility.yul\":2024:2097   */\n      tag_140\n        /* \"#utility.yul\":2092:2096   */\n      dup3\n        /* \"#utility.yul\":2078:2090   */\n      dup3\n        /* \"#utility.yul\":2024:2097   */\n      tag_73\n      jump\t// in\n    tag_140:\n        /* \"#utility.yul\":2016:2097   */\n      swap2\n      pop\n        /* \"#utility.yul\":1859:2108   */\n      pop\n        /* \"#utility.yul\":2125:2129   */\n      dup1\n        /* \"#utility.yul\":2118:2129   */\n      swap2\n      pop\n        /* \"#utility.yul\":1562:2135   */\n      pop\n        /* \"#utility.yul\":1456:2135   */\n      swap3\n      swap2\n      pop\n      pop\n      jump\t// out\n        /* \"#utility.yul\":2141:2381   */\n    tag_75:\n        /* \"#utility.yul\":2252:2262   */\n      0x00\n        /* \"#utility.yul\":2287:2375   */\n      tag_142\n        /* \"#utility.yul\":2371:2374   */\n      dup4\n        /* \"#utility.yul\":2363:2369   */\n      dup4\n        /* \"#utility.yul\":2287:2375   */\n      tag_74\n      jump\t// in\n    tag_142:\n        /* \"#utility.yul\":2273:2375   */\n      swap1\n      pop\n        /* \"#utility.yul\":2141:2381   */\n      swap3\n      swap2\n      pop\n      pop\n      jump\t// out\n        /* \"#utility.yul\":2387:2521   */\n    tag_76:\n        /* \"#utility.yul\":2478:2482   */\n      0x00\n        /* \"#utility.yul\":2510:2514   */\n      0x20\n        /* \"#utility.yul\":2505:2508   */\n      dup3\n        /* \"#utility.yul\":2501:2515   */\n      add\n        /* \"#utility.yul\":2493:2515   */\n      swap1\n      pop\n        /* \"#utility.yul\":2387:2521   */\n      swap2\n      swap1\n      pop\n      jump\t// out\n        /* \"#utility.yul\":2583:3662   */\n    tag_77:\n        /* \"#utility.yul\":2744:2747   */\n      0x00\n        /* \"#utility.yul\":2773:2848   */\n      tag_145\n        /* \"#utility.yul\":2842:2847   */\n      dup3\n        /* \"#utility.yul\":2773:2848   */\n      tag_66\n      jump\t// in\n    tag_145:\n        /* \"#utility.yul\":2864:2971   */\n      tag_146\n        /* \"#utility.yul\":2964:2970   */\n      dup2\n        /* \"#utility.yul\":2959:2962   */\n      dup6\n        /* \"#utility.yul\":2864:2971   */\n      tag_67\n      jump\t// in\n    tag_146:\n        /* \"#utility.yul\":2857:2971   */\n      swap4\n      pop\n        /* \"#utility.yul\":2997:3000   */\n      dup4\n        /* \"#utility.yul\":3042:3046   */\n      0x20\n        /* \"#utility.yul\":3034:3040   */\n      dup3\n        /* \"#utility.yul\":3030:3047   */\n      mul\n        /* \"#utility.yul\":3025:3028   */\n      dup6\n        /* \"#utility.yul\":3021:3048   */\n      add\n        /* \"#utility.yul\":3072:3149   */\n      tag_147\n        /* \"#utility.yul\":3143:3148   */\n      dup6\n        /* \"#utility.yul\":3072:3149   */\n      tag_68\n      jump\t// in\n    tag_147:\n        /* \"#utility.yul\":3172:3179   */\n      dup1\n        /* \"#utility.yul\":3203:3204   */\n      0x00\n        /* \"#utility.yul\":3188:3617   */\n    tag_148:\n        /* \"#utility.yul\":3213:3219   */\n      dup6\n        /* \"#utility.yul\":3210:3211   */\n      dup2\n        /* \"#utility.yul\":3207:3220   */\n      lt\n        /* \"#utility.yul\":3188:3617   */\n      iszero\n      tag_150\n      jumpi\n        /* \"#utility.yul\":3284:3293   */\n      dup5\n        /* \"#utility.yul\":3278:3282   */\n      dup5\n        /* \"#utility.yul\":3274:3294   */\n      sub\n        /* \"#utility.yul\":3269:3272   */\n      dup10\n        /* \"#utility.yul\":3262:3295   */\n      mstore\n        /* \"#utility.yul\":3335:3341   */\n      dup2\n        /* \"#utility.yul\":3329:3342   */\n      mload\n        /* \"#utility.yul\":3363:3469   */\n      tag_151\n        /* \"#utility.yul\":3464:3468   */\n      dup6\n        /* \"#utility.yul\":3449:3462   */\n      dup3\n        /* \"#utility.yul\":3363:3469   */\n      tag_75\n      jump\t// in\n    tag_151:\n        /* \"#utility.yul\":3355:3469   */\n      swap5\n      pop\n        /* \"#utility.yul\":3492:3573   */\n      tag_152\n        /* \"#utility.yul\":3566:3572   */\n      dup4\n        /* \"#utility.yul\":3492:3573   */\n      tag_76\n      jump\t// in\n    tag_152:\n        /* \"#utility.yul\":3482:3573   */\n      swap3\n      pop\n        /* \"#utility.yul\":3602:3606   */\n      0x20\n        /* \"#utility.yul\":3597:3600   */\n      dup11\n        /* \"#utility.yul\":3593:3607   */\n      add\n        /* \"#utility.yul\":3586:3607   */\n      swap10\n      pop\n        /* \"#utility.yul\":3248:3617   */\n      pop\n        /* \"#utility.yul\":3235:3236   */\n      0x01\n        /* \"#utility.yul\":3232:3233   */\n      dup2\n        /* \"#utility.yul\":3228:3237   */\n      add\n        /* \"#utility.yul\":3223:3237   */\n      swap1\n      pop\n        /* \"#utility.yul\":3188:3617   */\n      jump(tag_148)\n    tag_150:\n        /* \"#utility.yul\":3192:3206   */\n      pop\n        /* \"#utility.yul\":3633:3637   */\n      dup3\n        /* \"#utility.yul\":3626:3637   */\n      swap8\n      pop\n        /* \"#utility.yul\":3653:3656   */\n      dup8\n        /* \"#utility.yul\":3646:3656   */\n      swap6\n      pop\n        /* \"#utility.yul\":2749:3662   */\n      pop\n      pop\n      pop\n      pop\n      pop\n        /* \"#utility.yul\":2583:3662   */\n      swap3\n      swap2\n      pop\n      pop\n      jump\t// out\n        /* \"#utility.yul\":3668:4125   */\n    tag_9:\n        /* \"#utility.yul\":3853:3857   */\n      0x00\n        /* \"#utility.yul\":3891:3893   */\n      0x20\n        /* \"#utility.yul\":3880:3889   */\n      dup3\n        /* \"#utility.yul\":3876:3894   */\n      add\n        /* \"#utility.yul\":3868:3894   */\n      swap1\n      pop\n        /* \"#utility.yul\":3940:3949   */\n      dup2\n        /* \"#utility.yul\":3934:3938   */\n      dup2\n        /* \"#utility.yul\":3930:3950   */\n      sub\n        /* \"#utility.yul\":3926:3927   */\n      0x00\n        /* \"#utility.yul\":3915:3924   */\n      dup4\n        /* \"#utility.yul\":3911:3928   */\n      add\n        /* \"#utility.yul\":3904:3951   */\n      mstore\n        /* \"#utility.yul\":3968:4118   */\n      tag_154\n        /* \"#utility.yul\":4113:4117   */\n      dup2\n        /* \"#utility.yul\":4104:4110   */\n      dup5\n        /* \"#utility.yul\":3968:4118   */\n      tag_77\n      jump\t// in\n    tag_154:\n        /* \"#utility.yul\":3960:4118   */\n      swap1\n      pop\n        /* \"#utility.yul\":3668:4125   */\n      swap3\n      swap2\n      pop\n      pop\n      jump\t// out\n        /* \"#utility.yul\":4131:4206   */\n    tag_78:\n        /* \"#utility.yul\":4164:4170   */\n      0x00\n        /* \"#utility.yul\":4197:4199   */\n      0x40\n        /* \"#utility.yul\":4191:4200   */\n      mload\n        /* \"#utility.yul\":4181:4200   */\n      swap1\n      pop\n        /* \"#utility.yul\":4131:4206   */\n      swap1\n      jump\t// out\n        /* \"#utility.yul\":4212:4329   */\n    tag_79:\n        /* \"#utility.yul\":4321:4322   */\n      0x00\n        /* \"#utility.yul\":4318:4319   */\n      dup1\n        /* \"#utility.yul\":4311:4323   */\n      revert\n        /* \"#utility.yul\":4335:4452   */\n    tag_80:\n        /* \"#utility.yul\":4444:4445   */\n      0x00\n        /* \"#utility.yul\":4441:4442   */\n      dup1\n        /* \"#utility.yul\":4434:4446   */\n      revert\n        /* \"#utility.yul\":4458:4584   */\n    tag_81:\n        /* \"#utility.yul\":4495:4502   */\n      0x00\n        /* \"#utility.yul\":4535:4577   */\n      0xffffffffffffffffffffffffffffffffffffffff\n        /* \"#utility.yul\":4528:4533   */\n      dup3\n        /* \"#utility.yul\":4524:4578   */\n      and\n        /* \"#utility.yul\":4513:4578   */\n      swap1\n      pop\n        /* \"#utility.yul\":4458:4584   */\n      swap2\n      swap1\n      pop\n      jump\t// out\n        /* \"#utility.yul\":4590:4686   */\n    tag_82:\n        /* \"#utility.yul\":4627:4634   */\n      0x00\n        /* \"#utility.yul\":4656:4680   */\n      tag_160\n        /* \"#utility.yul\":4674:4679   */\n      dup3\n        /* \"#utility.yul\":4656:4680   */\n      tag_81\n      jump\t// in\n    tag_160:\n        /* \"#utility.yul\":4645:4680   */\n      swap1\n      pop\n        /* \"#utility.yul\":4590:4686   */\n      swap2\n      swap1\n      pop\n      jump\t// out\n        /* \"#utility.yul\":4692:4814   */\n    tag_83:\n        /* \"#utility.yul\":4765:4789   */\n      tag_162\n        /* \"#utility.yul\":4783:4788   */\n      dup2\n        /* \"#utility.yul\":4765:4789   */\n      tag_82\n      jump\t// in\n    tag_162:\n        /* \"#utility.yul\":4758:4763   */\n      dup2\n        /* \"#utility.yul\":4755:4790   */\n      eq\n        /* \"#utility.yul\":4745:4808   */\n      tag_163\n      jumpi\n        /* \"#utility.yul\":4804:4805   */\n      0x00\n        /* \"#utility.yul\":4801:4802   */\n      dup1\n        /* \"#utility.yul\":4794:4806   */\n      revert\n        /* \"#utility.yul\":4745:4808   */\n    tag_163:\n        /* \"#utility.yul\":4692:4814   */\n      pop\n      jump\t// out\n        /* \"#utility.yul\":4820:4959   */\n    tag_84:\n        /* \"#utility.yul\":4866:4871   */\n      0x00\n        /* \"#utility.yul\":4904:4910   */\n      dup2\n        /* \"#utility.yul\":4891:4911   */\n      calldataload\n        /* \"#utility.yul\":4882:4911   */\n      swap1\n      pop\n        /* \"#utility.yul\":4920:4953   */\n      tag_165\n        /* \"#utility.yul\":4947:4952   */\n      dup2\n        /* \"#utility.yul\":4920:4953   */\n      tag_83\n      jump\t// in\n    tag_165:\n        /* \"#utility.yul\":4820:4959   */\n      swap3\n      swap2\n      pop\n      pop\n      jump\t// out\n        /* \"#utility.yul\":4965:5042   */\n    tag_85:\n        /* \"#utility.yul\":5002:5009   */\n      0x00\n        /* \"#utility.yul\":5031:5036   */\n      dup2\n        /* \"#utility.yul\":5020:5036   */\n      swap1\n      pop\n        /* \"#utility.yul\":4965:5042   */\n      swap2\n      swap1\n      pop\n      jump\t// out\n        /* \"#utility.yul\":5048:5170   */\n    tag_86:\n        /* \"#utility.yul\":5121:5145   */\n      tag_168\n        /* \"#utility.yul\":5139:5144   */\n      dup2\n        /* \"#utility.yul\":5121:5145   */\n      tag_85\n      jump\t// in\n    tag_168:\n        /* \"#utility.yul\":5114:5119   */\n      dup2\n        /* \"#utility.yul\":5111:5146   */\n      eq\n        /* \"#utility.yul\":5101:5164   */\n      tag_169\n      jumpi\n        /* \"#utility.yul\":5160:5161   */\n      0x00\n        /* \"#utility.yul\":5157:5158   */\n      dup1\n        /* \"#utility.yul\":5150:5162   */\n      revert\n        /* \"#utility.yul\":5101:5164   */\n    tag_169:\n        /* \"#utility.yul\":5048:5170   */\n      pop\n      jump\t// out\n        /* \"#utility.yul\":5176:5315   */\n    tag_87:\n        /* \"#utility.yul\":5222:5227   */\n      0x00\n        /* \"#utility.yul\":5260:5266   */\n      dup2\n        /* \"#utility.yul\":5247:5267   */\n      calldataload\n        /* \"#utility.yul\":5238:5267   */\n      swap1\n      pop\n        /* \"#utility.yul\":5276:5309   */\n      tag_171\n        /* \"#utility.yul\":5303:5308   */\n      dup2\n        /* \"#utility.yul\":5276:5309   */\n      tag_86\n      jump\t// in\n    tag_171:\n        /* \"#utility.yul\":5176:5315   */\n      swap3\n      swap2\n      pop\n      pop\n      jump\t// out\n        /* \"#utility.yul\":5321:5795   */\n    tag_12:\n        /* \"#utility.yul\":5389:5395   */\n      0x00\n        /* \"#utility.yul\":5397:5403   */\n      dup1\n        /* \"#utility.yul\":5446:5448   */\n      0x40\n        /* \"#utility.yul\":5434:5443   */\n      dup4\n        /* \"#utility.yul\":5425:5432   */\n      dup6\n        /* \"#utility.yul\":5421:5444   */\n      sub\n        /* \"#utility.yul\":5417:5449   */\n      slt\n        /* \"#utility.yul\":5414:5533   */\n      iszero\n      tag_173\n      jumpi\n        /* \"#utility.yul\":5452:5531   */\n      tag_174\n      tag_79\n      jump\t// in\n    tag_174:\n        /* \"#utility.yul\":5414:5533   */\n    tag_173:\n        /* \"#utility.yul\":5572:5573   */\n      0x00\n        /* \"#utility.yul\":5597:5650   */\n      tag_175\n        /* \"#utility.yul\":5642:5649   */\n      dup6\n        /* \"#utility.yul\":5633:5639   */\n      dup3\n        /* \"#utility.yul\":5622:5631   */\n      dup7\n        /* \"#utility.yul\":5618:5640   */\n      add\n        /* \"#utility.yul\":5597:5650   */\n      tag_84\n      jump\t// in\n    tag_175:\n        /* \"#utility.yul\":5587:5650   */\n      swap3\n      pop\n        /* \"#utility.yul\":5543:5660   */\n      pop\n        /* \"#utility.yul\":5699:5701   */\n      0x20\n        /* \"#utility.yul\":5725:5778   */\n      tag_176\n        /* \"#utility.yul\":5770:5777   */\n      dup6\n        /* \"#utility.yul\":5761:5767   */\n      dup3\n        /* \"#utility.yul\":5750:5759   */\n      dup7\n        /* \"#utility.yul\":5746:5768   */\n      add\n        /* \"#utility.yul\":5725:5778   */\n      tag_87\n      jump\t// in\n    tag_176:\n        /* \"#utility.yul\":5715:5778   */\n      swap2\n      pop\n        /* \"#utility.yul\":5670:5788   */\n      pop\n        /* \"#utility.yul\":5321:5795   */\n      swap3\n      pop\n      swap3\n      swap1\n      pop\n      jump\t// out\n        /* \"#utility.yul\":5801:5970   */\n    tag_88:\n        /* \"#utility.yul\":5885:5896   */\n      0x00\n        /* \"#utility.yul\":5919:5925   */\n      dup3\n        /* \"#utility.yul\":5914:5917   */\n      dup3\n        /* \"#utility.yul\":5907:5926   */\n      mstore\n        /* \"#utility.yul\":5959:5963   */\n      0x20\n        /* \"#utility.yul\":5954:5957   */\n      dup3\n        /* \"#utility.yul\":5950:5964   */\n      add\n        /* \"#utility.yul\":5935:5964   */\n      swap1\n      pop\n        /* \"#utility.yul\":5801:5970   */\n      swap3\n      swap2\n      pop\n      pop\n      jump\t// out\n        /* \"#utility.yul\":5976:6353   */\n    tag_89:\n        /* \"#utility.yul\":6064:6067   */\n      0x00\n        /* \"#utility.yul\":6092:6131   */\n      tag_179\n        /* \"#utility.yul\":6125:6130   */\n      dup3\n        /* \"#utility.yul\":6092:6131   */\n      tag_69\n      jump\t// in\n    tag_179:\n        /* \"#utility.yul\":6147:6218   */\n      tag_180\n        /* \"#utility.yul\":6211:6217   */\n      dup2\n        /* \"#utility.yul\":6206:6209   */\n      dup6\n        /* \"#utility.yul\":6147:6218   */\n      tag_88\n      jump\t// in\n    tag_180:\n        /* \"#utility.yul\":6140:6218   */\n      swap4\n      pop\n        /* \"#utility.yul\":6227:6292   */\n      tag_181\n        /* \"#utility.yul\":6285:6291   */\n      dup2\n        /* \"#utility.yul\":6280:6283   */\n      dup6\n        /* \"#utility.yul\":6273:6277   */\n      0x20\n        /* \"#utility.yul\":6266:6271   */\n      dup7\n        /* \"#utility.yul\":6262:6278   */\n      add\n        /* \"#utility.yul\":6227:6292   */\n      tag_71\n      jump\t// in\n    tag_181:\n        /* \"#utility.yul\":6317:6346   */\n      tag_182\n        /* \"#utility.yul\":6339:6345   */\n      dup2\n        /* \"#utility.yul\":6317:6346   */\n      tag_72\n      jump\t// in\n    tag_182:\n        /* \"#utility.yul\":6312:6315   */\n      dup5\n        /* \"#utility.yul\":6308:6347   */\n      add\n        /* \"#utility.yul\":6301:6347   */\n      swap2\n      pop\n        /* \"#utility.yul\":6068:6353   */\n      pop\n        /* \"#utility.yul\":5976:6353   */\n      swap3\n      swap2\n      pop\n      pop\n      jump\t// out\n        /* \"#utility.yul\":6359:6873   */\n    tag_15:\n        /* \"#utility.yul\":6520:6524   */\n      0x00\n        /* \"#utility.yul\":6558:6560   */\n      0x40\n        /* \"#utility.yul\":6547:6556   */\n      dup3\n        /* \"#utility.yul\":6543:6561   */\n      add\n        /* \"#utility.yul\":6535:6561   */\n      swap1\n      pop\n        /* \"#utility.yul\":6607:6616   */\n      dup2\n        /* \"#utility.yul\":6601:6605   */\n      dup2\n        /* \"#utility.yul\":6597:6617   */\n      sub\n        /* \"#utility.yul\":6593:6594   */\n      0x00\n        /* \"#utility.yul\":6582:6591   */\n      dup4\n        /* \"#utility.yul\":6578:6595   */\n      add\n        /* \"#utility.yul\":6571:6618   */\n      mstore\n        /* \"#utility.yul\":6635:6713   */\n      tag_184\n        /* \"#utility.yul\":6708:6712   */\n      dup2\n        /* \"#utility.yul\":6699:6705   */\n      dup6\n        /* \"#utility.yul\":6635:6713   */\n      tag_89\n      jump\t// in\n    tag_184:\n        /* \"#utility.yul\":6627:6713   */\n      swap1\n      pop\n        /* \"#utility.yul\":6760:6769   */\n      dup2\n        /* \"#utility.yul\":6754:6758   */\n      dup2\n        /* \"#utility.yul\":6750:6770   */\n      sub\n        /* \"#utility.yul\":6745:6747   */\n      0x20\n        /* \"#utility.yul\":6734:6743   */\n      dup4\n        /* \"#utility.yul\":6730:6748   */\n      add\n        /* \"#utility.yul\":6723:6771   */\n      mstore\n        /* \"#utility.yul\":6788:6866   */\n      tag_185\n        /* \"#utility.yul\":6861:6865   */\n      dup2\n        /* \"#utility.yul\":6852:6858   */\n      dup5\n        /* \"#utility.yul\":6788:6866   */\n      tag_89\n      jump\t// in\n    tag_185:\n        /* \"#utility.yul\":6780:6866   */\n      swap1\n      pop\n        /* \"#utility.yul\":6359:6873   */\n      swap4\n      swap3\n      pop\n      pop\n      pop\n      jump\t// out\n        /* \"#utility.yul\":6879:6996   */\n    tag_90:\n        /* \"#utility.yul\":6988:6989   */\n      0x00\n        /* \"#utility.yul\":6985:6986   */\n      dup1\n        /* \"#utility.yul\":6978:6990   */\n      revert\n        /* \"#utility.yul\":7002:7119   */\n    tag_91:\n        /* \"#utility.yul\":7111:7112   */\n      0x00\n        /* \"#utility.yul\":7108:7109   */\n      dup1\n        /* \"#utility.yul\":7101:7113   */\n      revert\n        /* \"#utility.yul\":7125:7305   */\n    tag_92:\n        /* \"#utility.yul\":7173:7250   */\n      0x4e487b7100000000000000000000000000000000000000000000000000000000\n        /* \"#utility.yul\":7170:7171   */\n      0x00\n        /* \"#utility.yul\":7163:7251   */\n      mstore\n        /* \"#utility.yul\":7270:7274   */\n      0x41\n        /* \"#utility.yul\":7267:7268   */\n      0x04\n        /* \"#utility.yul\":7260:7275   */\n      mstore\n        /* \"#utility.yul\":7294:7298   */\n      0x24\n        /* \"#utility.yul\":7291:7292   */\n      0x00\n        /* \"#utility.yul\":7284:7299   */\n      revert\n        /* \"#utility.yul\":7311:7592   */\n    tag_93:\n        /* \"#utility.yul\":7394:7421   */\n      tag_190\n        /* \"#utility.yul\":7416:7420   */\n      dup3\n        /* \"#utility.yul\":7394:7421   */\n      tag_72\n      jump\t// in\n    tag_190:\n        /* \"#utility.yul\":7386:7392   */\n      dup2\n        /* \"#utility.yul\":7382:7422   */\n      add\n        /* \"#utility.yul\":7524:7530   */\n      dup2\n        /* \"#utility.yul\":7512:7522   */\n      dup2\n        /* \"#utility.yul\":7509:7531   */\n      lt\n        /* \"#utility.yul\":7488:7506   */\n      0xffffffffffffffff\n        /* \"#utility.yul\":7476:7486   */\n      dup3\n        /* \"#utility.yul\":7473:7507   */\n      gt\n        /* \"#utility.yul\":7470:7532   */\n      or\n        /* \"#utility.yul\":7467:7555   */\n      iszero\n      tag_191\n      jumpi\n        /* \"#utility.yul\":7535:7553   */\n      tag_192\n      tag_92\n      jump\t// in\n    tag_192:\n        /* \"#utility.yul\":7467:7555   */\n    tag_191:\n        /* \"#utility.yul\":7575:7585   */\n      dup1\n        /* \"#utility.yul\":7571:7573   */\n      0x40\n        /* \"#utility.yul\":7564:7586   */\n      mstore\n        /* \"#utility.yul\":7354:7592   */\n      pop\n        /* \"#utility.yul\":7311:7592   */\n      pop\n      pop\n      jump\t// out\n        /* \"#utility.yul\":7598:7727   */\n    tag_94:\n        /* \"#utility.yul\":7632:7638   */\n      0x00\n        /* \"#utility.yul\":7659:7679   */\n      tag_194\n      tag_78\n      jump\t// in\n    tag_194:\n        /* \"#utility.yul\":7649:7679   */\n      swap1\n      pop\n        /* \"#utility.yul\":7688:7721   */\n      tag_195\n        /* \"#utility.yul\":7716:7720   */\n      dup3\n        /* \"#utility.yul\":7708:7714   */\n      dup3\n        /* \"#utility.yul\":7688:7721   */\n      tag_93\n      jump\t// in\n    tag_195:\n        /* \"#utility.yul\":7598:7727   */\n      swap2\n      swap1\n      pop\n      jump\t// out\n        /* \"#utility.yul\":7733:8041   */\n    tag_95:\n        /* \"#utility.yul\":7795:7799   */\n      0x00\n        /* \"#utility.yul\":7885:7903   */\n      0xffffffffffffffff\n        /* \"#utility.yul\":7877:7883   */\n      dup3\n        /* \"#utility.yul\":7874:7904   */\n      gt\n        /* \"#utility.yul\":7871:7927   */\n      iszero\n      tag_197\n      jumpi\n        /* \"#utility.yul\":7907:7925   */\n      tag_198\n      tag_92\n      jump\t// in\n    tag_198:\n        /* \"#utility.yul\":7871:7927   */\n    tag_197:\n        /* \"#utility.yul\":7945:7974   */\n      tag_199\n        /* \"#utility.yul\":7967:7973   */\n      dup3\n        /* \"#utility.yul\":7945:7974   */\n      tag_72\n      jump\t// in\n    tag_199:\n        /* \"#utility.yul\":7937:7974   */\n      swap1\n      pop\n        /* \"#utility.yul\":8029:8033   */\n      0x20\n        /* \"#utility.yul\":8023:8027   */\n      dup2\n        /* \"#utility.yul\":8019:8034   */\n      add\n        /* \"#utility.yul\":8011:8034   */\n      swap1\n      pop\n        /* \"#utility.yul\":7733:8041   */\n      swap2\n      swap1\n      pop\n      jump\t// out\n        /* \"#utility.yul\":8047:8195   */\n    tag_96:\n        /* \"#utility.yul\":8145:8151   */\n      dup3\n        /* \"#utility.yul\":8140:8143   */\n      dup2\n        /* \"#utility.yul\":8135:8138   */\n      dup4\n        /* \"#utility.yul\":8122:8152   */\n      calldatacopy\n        /* \"#utility.yul\":8186:8187   */\n      0x00\n        /* \"#utility.yul\":8177:8183   */\n      dup4\n        /* \"#utility.yul\":8172:8175   */\n      dup4\n        /* \"#utility.yul\":8168:8184   */\n      add\n        /* \"#utility.yul\":8161:8188   */\n      mstore\n        /* \"#utility.yul\":8047:8195   */\n      pop\n      pop\n      pop\n      jump\t// out\n        /* \"#utility.yul\":8201:8626   */\n    tag_97:\n        /* \"#utility.yul\":8279:8284   */\n      0x00\n        /* \"#utility.yul\":8304:8370   */\n      tag_202\n        /* \"#utility.yul\":8320:8369   */\n      tag_203\n        /* \"#utility.yul\":8362:8368   */\n      dup5\n        /* \"#utility.yul\":8320:8369   */\n      tag_95\n      jump\t// in\n    tag_203:\n        /* \"#utility.yul\":8304:8370   */\n      tag_94\n      jump\t// in\n    tag_202:\n        /* \"#utility.yul\":8295:8370   */\n      swap1\n      pop\n        /* \"#utility.yul\":8393:8399   */\n      dup3\n        /* \"#utility.yul\":8386:8391   */\n      dup2\n        /* \"#utility.yul\":8379:8400   */\n      mstore\n        /* \"#utility.yul\":8431:8435   */\n      0x20\n        /* \"#utility.yul\":8424:8429   */\n      dup2\n        /* \"#utility.yul\":8420:8436   */\n      add\n        /* \"#utility.yul\":8469:8472   */\n      dup5\n        /* \"#utility.yul\":8460:8466   */\n      dup5\n        /* \"#utility.yul\":8455:8458   */\n      dup5\n        /* \"#utility.yul\":8451:8467   */\n      add\n        /* \"#utility.yul\":8448:8473   */\n      gt\n        /* \"#utility.yul\":8445:8557   */\n      iszero\n      tag_204\n      jumpi\n        /* \"#utility.yul\":8476:8555   */\n      tag_205\n      tag_91\n      jump\t// in\n    tag_205:\n        /* \"#utility.yul\":8445:8557   */\n    tag_204:\n        /* \"#utility.yul\":8566:8620   */\n      tag_206\n        /* \"#utility.yul\":8613:8619   */\n      dup5\n        /* \"#utility.yul\":8608:8611   */\n      dup3\n        /* \"#utility.yul\":8603:8606   */\n      dup6\n        /* \"#utility.yul\":8566:8620   */\n      tag_96\n      jump\t// in\n    tag_206:\n        /* \"#utility.yul\":8285:8626   */\n      pop\n        /* \"#utility.yul\":8201:8626   */\n      swap4\n      swap3\n      pop\n      pop\n      pop\n      jump\t// out\n        /* \"#utility.yul\":8646:8986   */\n    tag_98:\n        /* \"#utility.yul\":8702:8707   */\n      0x00\n        /* \"#utility.yul\":8751:8754   */\n      dup3\n        /* \"#utility.yul\":8744:8748   */\n      0x1f\n        /* \"#utility.yul\":8736:8742   */\n      dup4\n        /* \"#utility.yul\":8732:8749   */\n      add\n        /* \"#utility.yul\":8728:8755   */\n      slt\n        /* \"#utility.yul\":8718:8840   */\n      tag_208\n      jumpi\n        /* \"#utility.yul\":8759:8838   */\n      tag_209\n      tag_90\n      jump\t// in\n    tag_209:\n        /* \"#utility.yul\":8718:8840   */\n    tag_208:\n        /* \"#utility.yul\":8876:8882   */\n      dup2\n        /* \"#utility.yul\":8863:8883   */\n      calldataload\n        /* \"#utility.yul\":8901:8980   */\n      tag_210\n        /* \"#utility.yul\":8976:8979   */\n      dup5\n        /* \"#utility.yul\":8968:8974   */\n      dup3\n        /* \"#utility.yul\":8961:8965   */\n      0x20\n        /* \"#utility.yul\":8953:8959   */\n      dup7\n        /* \"#utility.yul\":8949:8966   */\n      add\n        /* \"#utility.yul\":8901:8980   */\n      tag_97\n      jump\t// in\n    tag_210:\n        /* \"#utility.yul\":8892:8980   */\n      swap2\n      pop\n        /* \"#utility.yul\":8708:8986   */\n      pop\n        /* \"#utility.yul\":8646:8986   */\n      swap3\n      swap2\n      pop\n      pop\n      jump\t// out\n        /* \"#utility.yul\":8992:9826   */\n    tag_18:\n        /* \"#utility.yul\":9080:9086   */\n      0x00\n        /* \"#utility.yul\":9088:9094   */\n      dup1\n        /* \"#utility.yul\":9137:9139   */\n      0x40\n        /* \"#utility.yul\":9125:9134   */\n      dup4\n        /* \"#utility.yul\":9116:9123   */\n      dup6\n        /* \"#utility.yul\":9112:9135   */\n      sub\n        /* \"#utility.yul\":9108:9140   */\n      slt\n        /* \"#utility.yul\":9105:9224   */\n      iszero\n      tag_212\n      jumpi\n        /* \"#utility.yul\":9143:9222   */\n      tag_213\n      tag_79\n      jump\t// in\n    tag_213:\n        /* \"#utility.yul\":9105:9224   */\n    tag_212:\n        /* \"#utility.yul\":9291:9292   */\n      0x00\n        /* \"#utility.yul\":9280:9289   */\n      dup4\n        /* \"#utility.yul\":9276:9293   */\n      add\n        /* \"#utility.yul\":9263:9294   */\n      calldataload\n        /* \"#utility.yul\":9321:9339   */\n      0xffffffffffffffff\n        /* \"#utility.yul\":9313:9319   */\n      dup2\n        /* \"#utility.yul\":9310:9340   */\n      gt\n        /* \"#utility.yul\":9307:9424   */\n      iszero\n      tag_214\n      jumpi\n        /* \"#utility.yul\":9343:9422   */\n      tag_215\n      tag_80\n      jump\t// in\n    tag_215:\n        /* \"#utility.yul\":9307:9424   */\n    tag_214:\n        /* \"#utility.yul\":9448:9511   */\n      tag_216\n        /* \"#utility.yul\":9503:9510   */\n      dup6\n        /* \"#utility.yul\":9494:9500   */\n      dup3\n        /* \"#utility.yul\":9483:9492   */\n      dup7\n        /* \"#utility.yul\":9479:9501   */\n      add\n        /* \"#utility.yul\":9448:9511   */\n      tag_98\n      jump\t// in\n    tag_216:\n        /* \"#utility.yul\":9438:9511   */\n      swap3\n      pop\n        /* \"#utility.yul\":9234:9521   */\n      pop\n        /* \"#utility.yul\":9588:9590   */\n      0x20\n        /* \"#utility.yul\":9577:9586   */\n      dup4\n        /* \"#utility.yul\":9573:9591   */\n      add\n        /* \"#utility.yul\":9560:9592   */\n      calldataload\n        /* \"#utility.yul\":9619:9637   */\n      0xffffffffffffffff\n        /* \"#utility.yul\":9611:9617   */\n      dup2\n        /* \"#utility.yul\":9608:9638   */\n      gt\n        /* \"#utility.yul\":9605:9722   */\n      iszero\n      tag_217\n      jumpi\n        /* \"#utility.yul\":9641:9720   */\n      tag_218\n      tag_80\n      jump\t// in\n    tag_218:\n        /* \"#utility.yul\":9605:9722   */\n    tag_217:\n        /* \"#utility.yul\":9746:9809   */\n      tag_219\n        /* \"#utility.yul\":9801:9808   */\n      dup6\n        /* \"#utility.yul\":9792:9798   */\n      dup3\n        /* \"#utility.yul\":9781:9790   */\n      dup7\n        /* \"#utility.yul\":9777:9799   */\n      add\n        /* \"#utility.yul\":9746:9809   */\n      tag_98\n      jump\t// in\n    tag_219:\n        /* \"#utility.yul\":9736:9809   */\n      swap2\n      pop\n        /* \"#utility.yul\":9531:9819   */\n      pop\n        /* \"#utility.yul\":8992:9826   */\n      swap3\n      pop\n      swap3\n      swap1\n      pop\n      jump\t// out\n        /* \"#utility.yul\":9832:10012   */\n    tag_99:\n        /* \"#utility.yul\":9880:9957   */\n      0x4e487b7100000000000000000000000000000000000000000000000000000000\n        /* \"#utility.yul\":9877:9878   */\n      0x00\n        /* \"#utility.yul\":9870:9958   */\n      mstore\n        /* \"#utility.yul\":9977:9981   */\n      0x22\n        /* \"#utility.yul\":9974:9975   */\n      0x04\n        /* \"#utility.yul\":9967:9982   */\n      mstore\n        /* \"#utility.yul\":10001:10005   */\n      0x24\n        /* \"#utility.yul\":9998:9999   */\n      0x00\n        /* \"#utility.yul\":9991:10006   */\n      revert\n        /* \"#utility.yul\":10018:10338   */\n    tag_25:\n        /* \"#utility.yul\":10062:10068   */\n      0x00\n        /* \"#utility.yul\":10099:10100   */\n      0x02\n        /* \"#utility.yul\":10093:10097   */\n      dup3\n        /* \"#utility.yul\":10089:10101   */\n      div\n        /* \"#utility.yul\":10079:10101   */\n      swap1\n      pop\n        /* \"#utility.yul\":10146:10147   */\n      0x01\n        /* \"#utility.yul\":10140:10144   */\n      dup3\n        /* \"#utility.yul\":10136:10148   */\n      and\n        /* \"#utility.yul\":10167:10185   */\n      dup1\n        /* \"#utility.yul\":10157:10238   */\n      tag_222\n      jumpi\n        /* \"#utility.yul\":10223:10227   */\n      0x7f\n        /* \"#utility.yul\":10215:10221   */\n      dup3\n        /* \"#utility.yul\":10211:10228   */\n      and\n        /* \"#utility.yul\":10201:10228   */\n      swap2\n      pop\n        /* \"#utility.yul\":10157:10238   */\n    tag_222:\n        /* \"#utility.yul\":10285:10287   */\n      0x20\n        /* \"#utility.yul\":10277:10283   */\n      dup3\n        /* \"#utility.yul\":10274:10288   */\n      lt\n        /* \"#utility.yul\":10254:10272   */\n      dup2\n        /* \"#utility.yul\":10251:10289   */\n      sub\n        /* \"#utility.yul\":10248:10332   */\n      tag_223\n      jumpi\n        /* \"#utility.yul\":10304:10322   */\n      tag_224\n      tag_99\n      jump\t// in\n    tag_224:\n        /* \"#utility.yul\":10248:10332   */\n    tag_223:\n        /* \"#utility.yul\":10069:10338   */\n      pop\n        /* \"#utility.yul\":10018:10338   */\n      swap2\n      swap1\n      pop\n      jump\t// out\n        /* \"#utility.yul\":10344:10492   */\n    tag_100:\n        /* \"#utility.yul\":10446:10457   */\n      0x00\n        /* \"#utility.yul\":10483:10486   */\n      dup2\n        /* \"#utility.yul\":10468:10486   */\n      swap1\n      pop\n        /* \"#utility.yul\":10344:10492   */\n      swap3\n      swap2\n      pop\n      pop\n      jump\t// out\n        /* \"#utility.yul\":10498:10655   */\n    tag_101:\n        /* \"#utility.yul\":10638:10647   */\n      0x6d65646963616c00000000000000000000000000000000000000000000000000\n        /* \"#utility.yul\":10634:10635   */\n      0x00\n        /* \"#utility.yul\":10626:10632   */\n      dup3\n        /* \"#utility.yul\":10622:10636   */\n      add\n        /* \"#utility.yul\":10615:10648   */\n      mstore\n        /* \"#utility.yul\":10498:10655   */\n      pop\n      jump\t// out\n        /* \"#utility.yul\":10661:11061   */\n    tag_102:\n        /* \"#utility.yul\":10821:10824   */\n      0x00\n        /* \"#utility.yul\":10842:10926   */\n      tag_228\n        /* \"#utility.yul\":10924:10925   */\n      0x07\n        /* \"#utility.yul\":10919:10922   */\n      dup4\n        /* \"#utility.yul\":10842:10926   */\n      tag_100\n      jump\t// in\n    tag_228:\n        /* \"#utility.yul\":10835:10926   */\n      swap2\n      pop\n        /* \"#utility.yul\":10935:11028   */\n      tag_229\n        /* \"#utility.yul\":11024:11027   */\n      dup3\n        /* \"#utility.yul\":10935:11028   */\n      tag_101\n      jump\t// in\n    tag_229:\n        /* \"#utility.yul\":11053:11054   */\n      0x07\n        /* \"#utility.yul\":11048:11051   */\n      dup3\n        /* \"#utility.yul\":11044:11055   */\n      add\n        /* \"#utility.yul\":11037:11055   */\n      swap1\n      pop\n        /* \"#utility.yul\":10661:11061   */\n      swap2\n      swap1\n      pop\n      jump\t// out\n        /* \"#utility.yul\":11067:11448   */\n    tag_49:\n        /* \"#utility.yul\":11252:11255   */\n      0x00\n        /* \"#utility.yul\":11274:11422   */\n      tag_231\n        /* \"#utility.yul\":11418:11421   */\n      dup3\n        /* \"#utility.yul\":11274:11422   */\n      tag_102\n      jump\t// in\n    tag_231:\n        /* \"#utility.yul\":11267:11422   */\n      swap2\n      pop\n        /* \"#utility.yul\":11439:11442   */\n      dup2\n        /* \"#utility.yul\":11432:11442   */\n      swap1\n      pop\n        /* \"#utility.yul\":11067:11448   */\n      swap2\n      swap1\n      pop\n      jump\t// out\n        /* \"#utility.yul\":11454:11844   */\n    tag_103:\n        /* \"#utility.yul\":11560:11563   */\n      0x00\n        /* \"#utility.yul\":11588:11627   */\n      tag_233\n        /* \"#utility.yul\":11621:11626   */\n      dup3\n        /* \"#utility.yul\":11588:11627   */\n      tag_69\n      jump\t// in\n    tag_233:\n        /* \"#utility.yul\":11643:11732   */\n      tag_234\n        /* \"#utility.yul\":11725:11731   */\n      dup2\n        /* \"#utility.yul\":11720:11723   */\n      dup6\n        /* \"#utility.yul\":11643:11732   */\n      tag_100\n      jump\t// in\n    tag_234:\n        /* \"#utility.yul\":11636:11732   */\n      swap4\n      pop\n        /* \"#utility.yul\":11741:11806   */\n      tag_235\n        /* \"#utility.yul\":11799:11805   */\n      dup2\n        /* \"#utility.yul\":11794:11797   */\n      dup6\n        /* \"#utility.yul\":11787:11791   */\n      0x20\n        /* \"#utility.yul\":11780:11785   */\n      dup7\n        /* \"#utility.yul\":11776:11792   */\n      add\n        /* \"#utility.yul\":11741:11806   */\n      tag_71\n      jump\t// in\n    tag_235:\n        /* \"#utility.yul\":11831:11837   */\n      dup1\n        /* \"#utility.yul\":11826:11829   */\n      dup5\n        /* \"#utility.yul\":11822:11838   */\n      add\n        /* \"#utility.yul\":11815:11838   */\n      swap2\n      pop\n        /* \"#utility.yul\":11564:11844   */\n      pop\n        /* \"#utility.yul\":11454:11844   */\n      swap3\n      swap2\n      pop\n      pop\n      jump\t// out\n        /* \"#utility.yul\":11850:12125   */\n    tag_51:\n        /* \"#utility.yul\":11982:11985   */\n      0x00\n        /* \"#utility.yul\":12004:12099   */\n      tag_237\n        /* \"#utility.yul\":12095:12098   */\n      dup3\n        /* \"#utility.yul\":12086:12092   */\n      dup5\n        /* \"#utility.yul\":12004:12099   */\n      tag_103\n      jump\t// in\n    tag_237:\n        /* \"#utility.yul\":11997:12099   */\n      swap2\n      pop\n        /* \"#utility.yul\":12116:12119   */\n      dup2\n        /* \"#utility.yul\":12109:12119   */\n      swap1\n      pop\n        /* \"#utility.yul\":11850:12125   */\n      swap3\n      swap2\n      pop\n      pop\n      jump\t// out\n        /* \"#utility.yul\":12131:12289   */\n    tag_104:\n        /* \"#utility.yul\":12271:12281   */\n      0x70726f7065727479000000000000000000000000000000000000000000000000\n        /* \"#utility.yul\":12267:12268   */\n      0x00\n        /* \"#utility.yul\":12259:12265   */\n      dup3\n        /* \"#utility.yul\":12255:12269   */\n      add\n        /* \"#utility.yul\":12248:12282   */\n      mstore\n        /* \"#utility.yul\":12131:12289   */\n      pop\n      jump\t// out\n        /* \"#utility.yul\":12295:12695   */\n    tag_105:\n        /* \"#utility.yul\":12455:12458   */\n      0x00\n        /* \"#utility.yul\":12476:12560   */\n      tag_240\n        /* \"#utility.yul\":12558:12559   */\n      0x08\n        /* \"#utility.yul\":12553:12556   */\n      dup4\n        /* \"#utility.yul\":12476:12560   */\n      tag_100\n      jump\t// in\n    tag_240:\n        /* \"#utility.yul\":12469:12560   */\n      swap2\n      pop\n        /* \"#utility.yul\":12569:12662   */\n      tag_241\n        /* \"#utility.yul\":12658:12661   */\n      dup3\n        /* \"#utility.yul\":12569:12662   */\n      tag_104\n      jump\t// in\n    tag_241:\n        /* \"#utility.yul\":12687:12688   */\n      0x08\n        /* \"#utility.yul\":12682:12685   */\n      dup3\n        /* \"#utility.yul\":12678:12689   */\n      add\n        /* \"#utility.yul\":12671:12689   */\n      swap1\n      pop\n        /* \"#utility.yul\":12295:12695   */\n      swap2\n      swap1\n      pop\n      jump\t// out\n        /* \"#utility.yul\":12701:13082   */\n    tag_53:\n        /* \"#utility.yul\":12886:12889   */\n      0x00\n        /* \"#utility.yul\":12908:13056   */\n      tag_243\n        /* \"#utility.yul\":13052:13055   */\n      dup3\n        /* \"#utility.yul\":12908:13056   */\n      tag_105\n      jump\t// in\n    tag_243:\n        /* \"#utility.yul\":12901:13056   */\n      swap2\n      pop\n        /* \"#utility.yul\":13073:13076   */\n      dup2\n        /* \"#utility.yul\":13066:13076   */\n      swap1\n      pop\n        /* \"#utility.yul\":12701:13082   */\n      swap2\n      swap1\n      pop\n      jump\t// out\n        /* \"#utility.yul\":13088:13315   */\n    tag_106:\n        /* \"#utility.yul\":13228:13262   */\n      0x46696c652074797065206e6f74206d65646963616c206f722070726f70657274\n        /* \"#utility.yul\":13224:13225   */\n      0x00\n        /* \"#utility.yul\":13216:13222   */\n      dup3\n        /* \"#utility.yul\":13212:13226   */\n      add\n        /* \"#utility.yul\":13205:13263   */\n      mstore\n        /* \"#utility.yul\":13297:13307   */\n      0x79207265636f7264000000000000000000000000000000000000000000000000\n        /* \"#utility.yul\":13292:13294   */\n      0x20\n        /* \"#utility.yul\":13284:13290   */\n      dup3\n        /* \"#utility.yul\":13280:13295   */\n      add\n        /* \"#utility.yul\":13273:13308   */\n      mstore\n        /* \"#utility.yul\":13088:13315   */\n      pop\n      jump\t// out\n        /* \"#utility.yul\":13321:13687   */\n    tag_107:\n        /* \"#utility.yul\":13463:13466   */\n      0x00\n        /* \"#utility.yul\":13484:13551   */\n      tag_246\n        /* \"#utility.yul\":13548:13550   */\n      0x28\n        /* \"#utility.yul\":13543:13546   */\n      dup4\n        /* \"#utility.yul\":13484:13551   */\n      tag_88\n      jump\t// in\n    tag_246:\n        /* \"#utility.yul\":13477:13551   */\n      swap2\n      pop\n        /* \"#utility.yul\":13560:13653   */\n      tag_247\n        /* \"#utility.yul\":13649:13652   */\n      dup3\n        /* \"#utility.yul\":13560:13653   */\n      tag_106\n      jump\t// in\n    tag_247:\n        /* \"#utility.yul\":13678:13680   */\n      0x40\n        /* \"#utility.yul\":13673:13676   */\n      dup3\n        /* \"#utility.yul\":13669:13681   */\n      add\n        /* \"#utility.yul\":13662:13681   */\n      swap1\n      pop\n        /* \"#utility.yul\":13321:13687   */\n      swap2\n      swap1\n      pop\n      jump\t// out\n        /* \"#utility.yul\":13693:14112   */\n    tag_58:\n        /* \"#utility.yul\":13859:13863   */\n      0x00\n        /* \"#utility.yul\":13897:13899   */\n      0x20\n        /* \"#utility.yul\":13886:13895   */\n      dup3\n        /* \"#utility.yul\":13882:13900   */\n      add\n        /* \"#utility.yul\":13874:13900   */\n      swap1\n      pop\n        /* \"#utility.yul\":13946:13955   */\n      dup2\n        /* \"#utility.yul\":13940:13944   */\n      dup2\n        /* \"#utility.yul\":13936:13956   */\n      sub\n        /* \"#utility.yul\":13932:13933   */\n      0x00\n        /* \"#utility.yul\":13921:13930   */\n      dup4\n        /* \"#utility.yul\":13917:13934   */\n      add\n        /* \"#utility.yul\":13910:13957   */\n      mstore\n        /* \"#utility.yul\":13974:14105   */\n      tag_249\n        /* \"#utility.yul\":14100:14104   */\n      dup2\n        /* \"#utility.yul\":13974:14105   */\n      tag_107\n      jump\t// in\n    tag_249:\n        /* \"#utility.yul\":13966:14105   */\n      swap1\n      pop\n        /* \"#utility.yul\":13693:14112   */\n      swap2\n      swap1\n      pop\n      jump\t// out\n        /* \"#utility.yul\":14118:14286   */\n    tag_108:\n        /* \"#utility.yul\":14258:14278   */\n      0x46696c65207061746820697320656d7074790000000000000000000000000000\n        /* \"#utility.yul\":14254:14255   */\n      0x00\n        /* \"#utility.yul\":14246:14252   */\n      dup3\n        /* \"#utility.yul\":14242:14256   */\n      add\n        /* \"#utility.yul\":14235:14279   */\n      mstore\n        /* \"#utility.yul\":14118:14286   */\n      pop\n      jump\t// out\n        /* \"#utility.yul\":14292:14658   */\n    tag_109:\n        /* \"#utility.yul\":14434:14437   */\n      0x00\n        /* \"#utility.yul\":14455:14522   */\n      tag_252\n        /* \"#utility.yul\":14519:14521   */\n      0x12\n        /* \"#utility.yul\":14514:14517   */\n      dup4\n        /* \"#utility.yul\":14455:14522   */\n      tag_88\n      jump\t// in\n    tag_252:\n        /* \"#utility.yul\":14448:14522   */\n      swap2\n      pop\n        /* \"#utility.yul\":14531:14624   */\n      tag_253\n        /* \"#utility.yul\":14620:14623   */\n      dup3\n        /* \"#utility.yul\":14531:14624   */\n      tag_108\n      jump\t// in\n    tag_253:\n        /* \"#utility.yul\":14649:14651   */\n      0x20\n        /* \"#utility.yul\":14644:14647   */\n      dup3\n        /* \"#utility.yul\":14640:14652   */\n      add\n        /* \"#utility.yul\":14633:14652   */\n      swap1\n      pop\n        /* \"#utility.yul\":14292:14658   */\n      swap2\n      swap1\n      pop\n      jump\t// out\n        /* \"#utility.yul\":14664:15083   */\n    tag_61:\n        /* \"#utility.yul\":14830:14834   */\n      0x00\n        /* \"#utility.yul\":14868:14870   */\n      0x20\n        /* \"#utility.yul\":14857:14866   */\n      dup3\n        /* \"#utility.yul\":14853:14871   */\n      add\n        /* \"#utility.yul\":14845:14871   */\n      swap1\n      pop\n        /* \"#utility.yul\":14917:14926   */\n      dup2\n        /* \"#utility.yul\":14911:14915   */\n      dup2\n        /* \"#utility.yul\":14907:14927   */\n      sub\n        /* \"#utility.yul\":14903:14904   */\n      0x00\n        /* \"#utility.yul\":14892:14901   */\n      dup4\n        /* \"#utility.yul\":14888:14905   */\n      add\n        /* \"#utility.yul\":14881:14928   */\n      mstore\n        /* \"#utility.yul\":14945:15076   */\n      tag_255\n        /* \"#utility.yul\":15071:15075   */\n      dup2\n        /* \"#utility.yul\":14945:15076   */\n      tag_109\n      jump\t// in\n    tag_255:\n        /* \"#utility.yul\":14937:15076   */\n      swap1\n      pop\n        /* \"#utility.yul\":14664:15083   */\n      swap2\n      swap1\n      pop\n      jump\t// out\n        /* \"#utility.yul\":15089:15230   */\n    tag_110:\n        /* \"#utility.yul\":15138:15142   */\n      0x00\n        /* \"#utility.yul\":15161:15164   */\n      dup2\n        /* \"#utility.yul\":15153:15164   */\n      swap1\n      pop\n        /* \"#utility.yul\":15184:15187   */\n      dup2\n        /* \"#utility.yul\":15181:15182   */\n      0x00\n        /* \"#utility.yul\":15174:15188   */\n      mstore\n        /* \"#utility.yul\":15218:15222   */\n      0x20\n        /* \"#utility.yul\":15215:15216   */\n      0x00\n        /* \"#utility.yul\":15205:15223   */\n      keccak256\n        /* \"#utility.yul\":15197:15223   */\n      swap1\n      pop\n        /* \"#utility.yul\":15089:15230   */\n      swap2\n      swap1\n      pop\n      jump\t// out\n        /* \"#utility.yul\":15236:15329   */\n    tag_111:\n        /* \"#utility.yul\":15273:15279   */\n      0x00\n        /* \"#utility.yul\":15320:15322   */\n      0x20\n        /* \"#utility.yul\":15315:15317   */\n      0x1f\n        /* \"#utility.yul\":15308:15313   */\n      dup4\n        /* \"#utility.yul\":15304:15318   */\n      add\n        /* \"#utility.yul\":15300:15323   */\n      div\n        /* \"#utility.yul\":15290:15323   */\n      swap1\n      pop\n        /* \"#utility.yul\":15236:15329   */\n      swap2\n      swap1\n      pop\n      jump\t// out\n        /* \"#utility.yul\":15335:15442   */\n    tag_112:\n        /* \"#utility.yul\":15379:15387   */\n      0x00\n        /* \"#utility.yul\":15429:15434   */\n      dup3\n        /* \"#utility.yul\":15423:15427   */\n      dup3\n        /* \"#utility.yul\":15419:15435   */\n      shl\n        /* \"#utility.yul\":15398:15435   */\n      swap1\n      pop\n        /* \"#utility.yul\":15335:15442   */\n      swap3\n      swap2\n      pop\n      pop\n      jump\t// out\n        /* \"#utility.yul\":15448:15841   */\n    tag_113:\n        /* \"#utility.yul\":15517:15523   */\n      0x00\n        /* \"#utility.yul\":15567:15568   */\n      0x08\n        /* \"#utility.yul\":15555:15565   */\n      dup4\n        /* \"#utility.yul\":15551:15569   */\n      mul\n        /* \"#utility.yul\":15590:15687   */\n      tag_260\n        /* \"#utility.yul\":15620:15686   */\n      0xffffffffffffffffffffffffffffffffffffffffffffffffffffffffffffffff\n        /* \"#utility.yul\":15609:15618   */\n      dup3\n        /* \"#utility.yul\":15590:15687   */\n      tag_112\n      jump\t// in\n    tag_260:\n        /* \"#utility.yul\":15708:15747   */\n      tag_261\n        /* \"#utility.yul\":15738:15746   */\n      dup7\n        /* \"#utility.yul\":15727:15736   */\n      dup4\n        /* \"#utility.yul\":15708:15747   */\n      tag_112\n      jump\t// in\n    tag_261:\n        /* \"#utility.yul\":15696:15747   */\n      swap6\n      pop\n        /* \"#utility.yul\":15780:15784   */\n      dup1\n        /* \"#utility.yul\":15776:15785   */\n      not\n        /* \"#utility.yul\":15769:15774   */\n      dup5\n        /* \"#utility.yul\":15765:15786   */\n      and\n        /* \"#utility.yul\":15756:15786   */\n      swap4\n      pop\n        /* \"#utility.yul\":15829:15833   */\n      dup1\n        /* \"#utility.yul\":15819:15827   */\n      dup7\n        /* \"#utility.yul\":15815:15834   */\n      and\n        /* \"#utility.yul\":15808:15813   */\n      dup5\n        /* \"#utility.yul\":15805:15835   */\n      or\n        /* \"#utility.yul\":15795:15835   */\n      swap3\n      pop\n        /* \"#utility.yul\":15524:15841   */\n      pop\n      pop\n        /* \"#utility.yul\":15448:15841   */\n      swap4\n      swap3\n      pop\n      pop\n      pop\n      jump\t// out\n        /* \"#utility.yul\":15847:15907   */\n    tag_114:\n        /* \"#utility.yul\":15875:15878   */\n      0x00\n        /* \"#utility.yul\":15896:15901   */\n      dup2\n        /* \"#utility.yul\":15889:15901   */\n      swap1\n      pop\n        /* \"#utility.yul\":15847:15907   */\n      swap2\n      swap1\n      pop\n      jump\t// out\n        /* \"#utility.yul\":15913:16055   */\n    tag_115:\n        /* \"#utility.yul\":15963:15972   */\n      0x00\n        /* \"#utility.yul\":15996:16049   */\n      tag_264\n        /* \"#utility.yul\":16014:16048   */\n      tag_265\n        /* \"#utility.yul\":16023:16047   */\n      tag_266\n        /* \"#utility.yul\":16041:16046   */\n      dup5\n        /* \"#utility.yul\":16023:16047   */\n      tag_85\n      jump\t// in\n    tag_266:\n        /* \"#utility.yul\":16014:16048   */\n      tag_114\n      jump\t// in\n    tag_265:\n        /* \"#utility.yul\":15996:16049   */\n      tag_85\n      jump\t// in\n    tag_264:\n        /* \"#utility.yul\":15983:16049   */\n      swap1\n      pop\n        /* \"#utility.yul\":15913:16055   */\n      swap2\n      swap1\n      pop\n      jump\t// out\n        /* \"#utility.yul\":16061:16136   */\n    tag_116:\n        /* \"#utility.yul\":16104:16107   */\n      0x00\n        /* \"#utility.yul\":16125:16130   */\n      dup2\n        /* \"#utility.yul\":16118:16130   */\n      swap1\n      pop\n        /* \"#utility.yul\":16061:16136   */\n      swap2\n      swap1\n      pop\n      jump\t// out\n        /* \"#utility.yul\":16142:16411   */\n    tag_117:\n        /* \"#utility.yul\":16252:16291   */\n      tag_269\n        /* \"#utility.yul\":16283:16290   */\n      dup4\n        /* \"#utility.yul\":16252:16291   */\n      tag_115\n      jump\t// in\n    tag_269:\n        /* \"#utility.yul\":16313:16404   */\n      tag_270\n        /* \"#utility.yul\":16362:16403   */\n      tag_271\n        /* \"#utility.yul\":16386:16402   */\n      dup3\n        /* \"#utility.yul\":16362:16403   */\n      tag_116\n      jump\t// in\n    tag_271:\n        /* \"#utility.yul\":16354:16360   */\n      dup5\n        /* \"#utility.yul\":16347:16351   */\n      dup5\n        /* \"#utility.yul\":16341:16352   */\n      sload\n        /* \"#utility.yul\":16313:16404   */\n      tag_113\n      jump\t// in\n    tag_270:\n        /* \"#utility.yul\":16307:16311   */\n      dup3\n        /* \"#utility.yul\":16300:16405   */\n      sstore\n        /* \"#utility.yul\":16218:16411   */\n      pop\n        /* \"#utility.yul\":16142:16411   */\n      pop\n      pop\n      pop\n      jump\t// out\n        /* \"#utility.yul\":16417:16490   */\n    tag_118:\n        /* \"#utility.yul\":16462:16465   */\n      0x00\n        /* \"#utility.yul\":16417:16490   */\n      swap1\n      jump\t// out\n        /* \"#utility.yul\":16496:16685   */\n    tag_119:\n        /* \"#utility.yul\":16573:16605   */\n      tag_274\n      tag_118\n      jump\t// in\n    tag_274:\n        /* \"#utility.yul\":16614:16679   */\n      tag_275\n        /* \"#utility.yul\":16672:16678   */\n      dup2\n        /* \"#utility.yul\":16664:16670   */\n      dup5\n        /* \"#utility.yul\":16658:16662   */\n      dup5\n        /* \"#utility.yul\":16614:16679   */\n      tag_117\n      jump\t// in\n    tag_275:\n        /* \"#utility.yul\":16549:16685   */\n      pop\n        /* \"#utility.yul\":16496:16685   */\n      pop\n      pop\n      jump\t// out\n        /* \"#utility.yul\":16691:16877   */\n    tag_120:\n        /* \"#utility.yul\":16751:16871   */\n    tag_277:\n        /* \"#utility.yul\":16768:16771   */\n      dup2\n        /* \"#utility.yul\":16761:16766   */\n      dup2\n        /* \"#utility.yul\":16758:16772   */\n      lt\n        /* \"#utility.yul\":16751:16871   */\n      iszero\n      tag_279\n      jumpi\n        /* \"#utility.yul\":16822:16861   */\n      tag_280\n        /* \"#utility.yul\":16859:16860   */\n      0x00\n        /* \"#utility.yul\":16852:16857   */\n      dup3\n        /* \"#utility.yul\":16822:16861   */\n      tag_119\n      jump\t// in\n    tag_280:\n        /* \"#utility.yul\":16795:16796   */\n      0x01\n        /* \"#utility.yul\":16788:16793   */\n      dup2\n        /* \"#utility.yul\":16784:16797   */\n      add\n        /* \"#utility.yul\":16775:16797   */\n      swap1\n      pop\n        /* \"#utility.yul\":16751:16871   */\n      jump(tag_277)\n    tag_279:\n        /* \"#utility.yul\":16691:16877   */\n      pop\n      pop\n      jump\t// out\n        /* \"#utility.yul\":16883:17426   */\n    tag_121:\n        /* \"#utility.yul\":16984:16986   */\n      0x1f\n        /* \"#utility.yul\":16979:16982   */\n      dup3\n        /* \"#utility.yul\":16976:16987   */\n      gt\n        /* \"#utility.yul\":16973:17419   */\n      iszero\n      tag_282\n      jumpi\n        /* \"#utility.yul\":17018:17056   */\n      tag_283\n        /* \"#utility.yul\":17050:17055   */\n      dup2\n        /* \"#utility.yul\":17018:17056   */\n      tag_110\n      jump\t// in\n    tag_283:\n        /* \"#utility.yul\":17102:17131   */\n      tag_284\n        /* \"#utility.yul\":17120:17130   */\n      dup5\n        /* \"#utility.yul\":17102:17131   */\n      tag_111\n      jump\t// in\n    tag_284:\n        /* \"#utility.yul\":17092:17100   */\n      dup2\n        /* \"#utility.yul\":17088:17132   */\n      add\n        /* \"#utility.yul\":17285:17287   */\n      0x20\n        /* \"#utility.yul\":17273:17283   */\n      dup6\n        /* \"#utility.yul\":17270:17288   */\n      lt\n        /* \"#utility.yul\":17267:17316   */\n      iszero\n      tag_285\n      jumpi\n        /* \"#utility.yul\":17306:17314   */\n      dup2\n        /* \"#utility.yul\":17291:17314   */\n      swap1\n      pop\n        /* \"#utility.yul\":17267:17316   */\n    tag_285:\n        /* \"#utility.yul\":17329:17409   */\n      tag_286\n        /* \"#utility.yul\":17385:17407   */\n      tag_287\n        /* \"#utility.yul\":17403:17406   */\n      dup6\n        /* \"#utility.yul\":17385:17407   */\n      tag_111\n      jump\t// in\n    tag_287:\n        /* \"#utility.yul\":17375:17383   */\n      dup4\n        /* \"#utility.yul\":17371:17408   */\n      add\n        /* \"#utility.yul\":17358:17369   */\n      dup3\n        /* \"#utility.yul\":17329:17409   */\n      tag_120\n      jump\t// in\n    tag_286:\n        /* \"#utility.yul\":16988:17419   */\n      pop\n      pop\n        /* \"#utility.yul\":16973:17419   */\n    tag_282:\n        /* \"#utility.yul\":16883:17426   */\n      pop\n      pop\n      pop\n      jump\t// out\n        /* \"#utility.yul\":17432:17549   */\n    tag_122:\n        /* \"#utility.yul\":17486:17494   */\n      0x00\n        /* \"#utility.yul\":17536:17541   */\n      dup3\n        /* \"#utility.yul\":17530:17534   */\n      dup3\n        /* \"#utility.yul\":17526:17542   */\n      shr\n        /* \"#utility.yul\":17505:17542   */\n      swap1\n      pop\n        /* \"#utility.yul\":17432:17549   */\n      swap3\n      swap2\n      pop\n      pop\n      jump\t// out\n        /* \"#utility.yul\":17555:17724   */\n    tag_123:\n        /* \"#utility.yul\":17599:17605   */\n      0x00\n        /* \"#utility.yul\":17632:17683   */\n      tag_290\n        /* \"#utility.yul\":17680:17681   */\n      0x00\n        /* \"#utility.yul\":17676:17682   */\n      not\n        /* \"#utility.yul\":17668:17673   */\n      dup5\n        /* \"#utility.yul\":17665:17666   */\n      0x08\n        /* \"#utility.yul\":17661:17674   */\n      mul\n        /* \"#utility.yul\":17632:17683   */\n      tag_122\n      jump\t// in\n    tag_290:\n        /* \"#utility.yul\":17628:17684   */\n      not\n        /* \"#utility.yul\":17713:17717   */\n      dup1\n        /* \"#utility.yul\":17707:17711   */\n      dup4\n        /* \"#utility.yul\":17703:17718   */\n      and\n        /* \"#utility.yul\":17693:17718   */\n      swap2\n      pop\n        /* \"#utility.yul\":17606:17724   */\n      pop\n        /* \"#utility.yul\":17555:17724   */\n      swap3\n      swap2\n      pop\n      pop\n      jump\t// out\n        /* \"#utility.yul\":17729:18024   */\n    tag_124:\n        /* \"#utility.yul\":17805:17809   */\n      0x00\n        /* \"#utility.yul\":17951:17980   */\n      tag_292\n        /* \"#utility.yul\":17976:17979   */\n      dup4\n        /* \"#utility.yul\":17970:17974   */\n      dup4\n        /* \"#utility.yul\":17951:17980   */\n      tag_123\n      jump\t// in\n    tag_292:\n        /* \"#utility.yul\":17943:17980   */\n      swap2\n      pop\n        /* \"#utility.yul\":18013:18016   */\n      dup3\n        /* \"#utility.yul\":18010:18011   */\n      0x02\n        /* \"#utility.yul\":18006:18017   */\n      mul\n        /* \"#utility.yul\":18000:18004   */\n      dup3\n        /* \"#utility.yul\":17997:18018   */\n      or\n        /* \"#utility.yul\":17989:18018   */\n      swap1\n      pop\n        /* \"#utility.yul\":17729:18024   */\n      swap3\n      swap2\n      pop\n      pop\n      jump\t// out\n        /* \"#utility.yul\":18029:19424   */\n    tag_64:\n        /* \"#utility.yul\":18146:18183   */\n      tag_294\n        /* \"#utility.yul\":18179:18182   */\n      dup3\n        /* \"#utility.yul\":18146:18183   */\n      tag_69\n      jump\t// in\n    tag_294:\n        /* \"#utility.yul\":18248:18266   */\n      0xffffffffffffffff\n        /* \"#utility.yul\":18240:18246   */\n      dup2\n        /* \"#utility.yul\":18237:18267   */\n      gt\n        /* \"#utility.yul\":18234:18290   */\n      iszero\n      tag_295\n      jumpi\n        /* \"#utility.yul\":18270:18288   */\n      tag_296\n      tag_92\n      jump\t// in\n    tag_296:\n        /* \"#utility.yul\":18234:18290   */\n    tag_295:\n        /* \"#utility.yul\":18314:18352   */\n      tag_297\n        /* \"#utility.yul\":18346:18350   */\n      dup3\n        /* \"#utility.yul\":18340:18351   */\n      sload\n        /* \"#utility.yul\":18314:18352   */\n      tag_25\n      jump\t// in\n    tag_297:\n        /* \"#utility.yul\":18399:18466   */\n      tag_298\n        /* \"#utility.yul\":18459:18465   */\n      dup3\n        /* \"#utility.yul\":18451:18457   */\n      dup3\n        /* \"#utility.yul\":18445:18449   */\n      dup6\n        /* \"#utility.yul\":18399:18466   */\n      tag_121\n      jump\t// in\n    tag_298:\n        /* \"#utility.yul\":18493:18494   */\n      0x00\n        /* \"#utility.yul\":18517:18521   */\n      0x20\n        /* \"#utility.yul\":18504:18521   */\n      swap1\n      pop\n        /* \"#utility.yul\":18549:18551   */\n      0x1f\n        /* \"#utility.yul\":18541:18547   */\n      dup4\n        /* \"#utility.yul\":18538:18552   */\n      gt\n        /* \"#utility.yul\":18566:18567   */\n      0x01\n        /* \"#utility.yul\":18561:19179   */\n      dup2\n      eq\n      tag_300\n      jumpi\n        /* \"#utility.yul\":19223:19224   */\n      0x00\n        /* \"#utility.yul\":19240:19246   */\n      dup5\n        /* \"#utility.yul\":19237:19314   */\n      iszero\n      tag_301\n      jumpi\n        /* \"#utility.yul\":19289:19298   */\n      dup3\n        /* \"#utility.yul\":19284:19287   */\n      dup8\n        /* \"#utility.yul\":19280:19299   */\n      add\n        /* \"#utility.yul\":19274:19300   */\n      mload\n        /* \"#utility.yul\":19265:19300   */\n      swap1\n      pop\n        /* \"#utility.yul\":19237:19314   */\n    tag_301:\n        /* \"#utility.yul\":19340:19407   */\n      tag_302\n        /* \"#utility.yul\":19400:19406   */\n      dup6\n        /* \"#utility.yul\":19393:19398   */\n      dup3\n        /* \"#utility.yul\":19340:19407   */\n      tag_124\n      jump\t// in\n    tag_302:\n        /* \"#utility.yul\":19334:19338   */\n      dup7\n        /* \"#utility.yul\":19327:19408   */\n      sstore\n        /* \"#utility.yul\":19196:19418   */\n      pop\n        /* \"#utility.yul\":18531:19418   */\n      jump(tag_299)\n        /* \"#utility.yul\":18561:19179   */\n    tag_300:\n        /* \"#utility.yul\":18613:18617   */\n      0x1f\n        /* \"#utility.yul\":18609:18618   */\n      not\n        /* \"#utility.yul\":18601:18607   */\n      dup5\n        /* \"#utility.yul\":18597:18619   */\n      and\n        /* \"#utility.yul\":18647:18684   */\n      tag_303\n        /* \"#utility.yul\":18679:18683   */\n      dup7\n        /* \"#utility.yul\":18647:18684   */\n      tag_110\n      jump\t// in\n    tag_303:\n        /* \"#utility.yul\":18706:18707   */\n      0x00\n        /* \"#utility.yul\":18720:18928   */\n    tag_304:\n        /* \"#utility.yul\":18734:18741   */\n      dup3\n        /* \"#utility.yul\":18731:18732   */\n      dup2\n        /* \"#utility.yul\":18728:18742   */\n      lt\n        /* \"#utility.yul\":18720:18928   */\n      iszero\n      tag_306\n      jumpi\n        /* \"#utility.yul\":18813:18822   */\n      dup5\n        /* \"#utility.yul\":18808:18811   */\n      dup10\n        /* \"#utility.yul\":18804:18823   */\n      add\n        /* \"#utility.yul\":18798:18824   */\n      mload\n        /* \"#utility.yul\":18790:18796   */\n      dup3\n        /* \"#utility.yul\":18783:18825   */\n      sstore\n        /* \"#utility.yul\":18864:18865   */\n      0x01\n        /* \"#utility.yul\":18856:18862   */\n      dup3\n        /* \"#utility.yul\":18852:18866   */\n      add\n        /* \"#utility.yul\":18842:18866   */\n      swap2\n      pop\n        /* \"#utility.yul\":18911:18913   */\n      0x20\n        /* \"#utility.yul\":18900:18909   */\n      dup6\n        /* \"#utility.yul\":18896:18914   */\n      add\n        /* \"#utility.yul\":18883:18914   */\n      swap5\n      pop\n        /* \"#utility.yul\":18757:18761   */\n      0x20\n        /* \"#utility.yul\":18754:18755   */\n      dup2\n        /* \"#utility.yul\":18750:18762   */\n      add\n        /* \"#utility.yul\":18745:18762   */\n      swap1\n      pop\n        /* \"#utility.yul\":18720:18928   */\n      jump(tag_304)\n    tag_306:\n        /* \"#utility.yul\":18956:18962   */\n      dup7\n        /* \"#utility.yul\":18947:18954   */\n      dup4\n        /* \"#utility.yul\":18944:18963   */\n      lt\n        /* \"#utility.yul\":18941:19120   */\n      iszero\n      tag_307\n      jumpi\n        /* \"#utility.yul\":19014:19023   */\n      dup5\n        /* \"#utility.yul\":19009:19012   */\n      dup10\n        /* \"#utility.yul\":19005:19024   */\n      add\n        /* \"#utility.yul\":18999:19025   */\n      mload\n        /* \"#utility.yul\":19057:19105   */\n      tag_308\n        /* \"#utility.yul\":19099:19103   */\n      0x1f\n        /* \"#utility.yul\":19091:19097   */\n      dup10\n        /* \"#utility.yul\":19087:19104   */\n      and\n        /* \"#utility.yul\":19076:19085   */\n      dup3\n        /* \"#utility.yul\":19057:19105   */\n      tag_123\n      jump\t// in\n    tag_308:\n        /* \"#utility.yul\":19049:19055   */\n      dup4\n        /* \"#utility.yul\":19042:19106   */\n      sstore\n        /* \"#utility.yul\":18964:19120   */\n      pop\n        /* \"#utility.yul\":18941:19120   */\n    tag_307:\n        /* \"#utility.yul\":19166:19167   */\n      0x01\n        /* \"#utility.yul\":19162:19163   */\n      0x02\n        /* \"#utility.yul\":19154:19160   */\n      dup9\n        /* \"#utility.yul\":19150:19164   */\n      mul\n        /* \"#utility.yul\":19146:19168   */\n      add\n        /* \"#utility.yul\":19140:19144   */\n      dup9\n        /* \"#utility.yul\":19133:19169   */\n      sstore\n        /* \"#utility.yul\":18568:19179   */\n      pop\n      pop\n      pop\n        /* \"#utility.yul\":18531:19418   */\n    tag_299:\n      pop\n        /* \"#utility.yul\":18121:19424   */\n      pop\n      pop\n      pop\n        /* \"#utility.yul\":18029:19424   */\n      pop\n      pop\n      jump\t// out\n\n    auxdata: 0xa264697066735822122090106a7e9468967f63b322c10c3c2bb2b64b2931ea7630b2ac979412e4759b8464736f6c634300081a0033\n}\n",
				"bytecode": {
					"linkReferences": {},
					"object": "60a0604052348015600e575f80fd5b503373ffffffffffffffffffffffffffffffffffffffff1660808173ffffffffffffffffffffffffffffffffffffffff1681525050608051610f046100585f395f5050610f045ff3fe608060405234801561000f575f80fd5b506004361061003f575f3560e01c80636d4ce63c1461004357806382a6c0ac14610061578063f876137614610092575b5f80fd5b61004b6100ae565b60405161005891906106e8565b60405180910390f35b61007b600480360381019061007691906107a6565b610263565b60405161008992919061082c565b60405180910390f35b6100ac60048036038101906100a7919061098d565b6103a8565b005b60605f803373ffffffffffffffffffffffffffffffffffffffff1673ffffffffffffffffffffffffffffffffffffffff1681526020019081526020015f20805480602002602001604051908101604052809291908181526020015f905b8282101561025a578382905f5260205f2090600202016040518060400160405290815f8201805461013b90610a30565b80601f016020809104026020016040519081016040528092919081815260200182805461016790610a30565b80156101b25780601f10610189576101008083540402835291602001916101b2565b820191905f5260205f20905b81548152906001019060200180831161019557829003601f168201915b505050505081526020016001820180546101cb90610a30565b80601f01602080910402602001604051908101604052809291908181526020018280546101f790610a30565b80156102425780601f1061021957610100808354040283529160200191610242565b820191905f5260205f20905b81548152906001019060200180831161022557829003601f168201915b5050505050815250508152602001906001019061010b565b50505050905090565b5f602052815f5260405f20818154811061027b575f80fd5b905f5260205f2090600202015f9150915050805f01805461029b90610a30565b80601f01602080910402602001604051908101604052809291908181526020018280546102c790610a30565b80156103125780601f106102e957610100808354040283529160200191610312565b820191905f5260205f20905b8154815290600101906020018083116102f557829003601f168201915b50505050509080600101805461032790610a30565b80601f016020809104026020016040519081016040528092919081815260200182805461035390610a30565b801561039e5780601f106103755761010080835404028352916020019161039e565b820191905f5260205f20905b81548152906001019060200180831161038157829003601f168201915b5050505050905082565b5f6040516020016103b890610ab4565b60405160208183030381529060405280519060200120836040516020016103df9190610af8565b604051602081830303815290604052805190602001201490505f60405160200161040890610b58565b604051602081830303815290604052805190602001208460405160200161042f9190610af8565b6040516020818303038152906040528051906020012014905081806104515750805b610490576040517f08c379a000000000000000000000000000000000000000000000000000000000815260040161048790610bdc565b60405180910390fd5b5f8351036104d3576040517f08c379a00000000000000000000000000000000000000000000000000000000081526004016104ca90610c44565b60405180910390fd5b5f803373ffffffffffffffffffffffffffffffffffffffff1673ffffffffffffffffffffffffffffffffffffffff1681526020019081526020015f20604051806040016040528086815260200185815250908060018154018082558091505060019003905f5260205f2090600202015f909190919091505f820151815f01908161055d9190610dff565b5060208201518160010190816105739190610dff565b50505050505050565b5f81519050919050565b5f82825260208201905092915050565b5f819050602082019050919050565b5f81519050919050565b5f82825260208201905092915050565b8281835e5f83830152505050565b5f601f19601f8301169050919050565b5f6105e7826105a5565b6105f181856105af565b93506106018185602086016105bf565b61060a816105cd565b840191505092915050565b5f604083015f8301518482035f86015261062f82826105dd565b9150506020830151848203602086015261064982826105dd565b9150508091505092915050565b5f6106618383610615565b905092915050565b5f602082019050919050565b5f61067f8261057c565b6106898185610586565b93508360208202850161069b85610596565b805f5b858110156106d657848403895281516106b78582610656565b94506106c283610669565b925060208a0199505060018101905061069e565b50829750879550505050505092915050565b5f6020820190508181035f8301526107008184610675565b905092915050565b5f604051905090565b5f80fd5b5f80fd5b5f73ffffffffffffffffffffffffffffffffffffffff82169050919050565b5f61074282610719565b9050919050565b61075281610738565b811461075c575f80fd5b50565b5f8135905061076d81610749565b92915050565b5f819050919050565b61078581610773565b811461078f575f80fd5b50565b5f813590506107a08161077c565b92915050565b5f80604083850312156107bc576107bb610711565b5b5f6107c98582860161075f565b92505060206107da85828601610792565b9150509250929050565b5f82825260208201905092915050565b5f6107fe826105a5565b61080881856107e4565b93506108188185602086016105bf565b610821816105cd565b840191505092915050565b5f6040820190508181035f83015261084481856107f4565b9050818103602083015261085881846107f4565b90509392505050565b5f80fd5b5f80fd5b7f4e487b71000000000000000000000000000000000000000000000000000000005f52604160045260245ffd5b61089f826105cd565b810181811067ffffffffffffffff821117156108be576108bd610869565b5b80604052505050565b5f6108d0610708565b90506108dc8282610896565b919050565b5f67ffffffffffffffff8211156108fb576108fa610869565b5b610904826105cd565b9050602081019050919050565b828183375f83830152505050565b5f61093161092c846108e1565b6108c7565b90508281526020810184848401111561094d5761094c610865565b5b610958848285610911565b509392505050565b5f82601f83011261097457610973610861565b5b813561098484826020860161091f565b91505092915050565b5f80604083850312156109a3576109a2610711565b5b5f83013567ffffffffffffffff8111156109c0576109bf610715565b5b6109cc85828601610960565b925050602083013567ffffffffffffffff8111156109ed576109ec610715565b5b6109f985828601610960565b9150509250929050565b7f4e487b71000000000000000000000000000000000000000000000000000000005f52602260045260245ffd5b5f6002820490506001821680610a4757607f821691505b602082108103610a5a57610a59610a03565b5b50919050565b5f81905092915050565b7f6d65646963616c000000000000000000000000000000000000000000000000005f82015250565b5f610a9e600783610a60565b9150610aa982610a6a565b600782019050919050565b5f610abe82610a92565b9150819050919050565b5f610ad2826105a5565b610adc8185610a60565b9350610aec8185602086016105bf565b80840191505092915050565b5f610b038284610ac8565b915081905092915050565b7f70726f70657274790000000000000000000000000000000000000000000000005f82015250565b5f610b42600883610a60565b9150610b4d82610b0e565b600882019050919050565b5f610b6282610b36565b9150819050919050565b7f46696c652074797065206e6f74206d65646963616c206f722070726f706572745f8201527f79207265636f7264000000000000000000000000000000000000000000000000602082015250565b5f610bc66028836107e4565b9150610bd182610b6c565b604082019050919050565b5f6020820190508181035f830152610bf381610bba565b9050919050565b7f46696c65207061746820697320656d70747900000000000000000000000000005f82015250565b5f610c2e6012836107e4565b9150610c3982610bfa565b602082019050919050565b5f6020820190508181035f830152610c5b81610c22565b9050919050565b5f819050815f5260205f209050919050565b5f6020601f8301049050919050565b5f82821b905092915050565b5f60088302610cbe7fffffffffffffffffffffffffffffffffffffffffffffffffffffffffffffffff82610c83565b610cc88683610c83565b95508019841693508086168417925050509392505050565b5f819050919050565b5f610d03610cfe610cf984610773565b610ce0565b610773565b9050919050565b5f819050919050565b610d1c83610ce9565b610d30610d2882610d0a565b848454610c8f565b825550505050565b5f90565b610d44610d38565b610d4f818484610d13565b505050565b5b81811015610d7257610d675f82610d3c565b600181019050610d55565b5050565b601f821115610db757610d8881610c62565b610d9184610c74565b81016020851015610da0578190505b610db4610dac85610c74565b830182610d54565b50505b505050565b5f82821c905092915050565b5f610dd75f1984600802610dbc565b1980831691505092915050565b5f610def8383610dc8565b9150826002028217905092915050565b610e08826105a5565b67ffffffffffffffff811115610e2157610e20610869565b5b610e2b8254610a30565b610e36828285610d76565b5f60209050601f831160018114610e67575f8415610e55578287015190505b610e5f8582610de4565b865550610ec6565b601f198416610e7586610c62565b5f5b82811015610e9c57848901518255600182019150602085019450602081019050610e77565b86831015610eb95784890151610eb5601f891682610dc8565b8355505b6001600288020188555050505b50505050505056fea264697066735822122090106a7e9468967f63b322c10c3c2bb2b64b2931ea7630b2ac979412e4759b8464736f6c634300081a0033",
					"opcodes": "PUSH1 0xA0 PUSH1 0x40 MSTORE CALLVALUE DUP1 ISZERO PUSH1 0xE JUMPI PUSH0 DUP1 REVERT JUMPDEST POP CALLER PUSH20 0xFFFFFFFFFFFFFFFFFFFFFFFFFFFFFFFFFFFFFFFF AND PUSH1 0x80 DUP2 PUSH20 0xFFFFFFFFFFFFFFFFFFFFFFFFFFFFFFFFFFFFFFFF AND DUP2 MSTORE POP POP PUSH1 0x80 MLOAD PUSH2 0xF04 PUSH2 0x58 PUSH0 CODECOPY PUSH0 POP POP PUSH2 0xF04 PUSH0 RETURN INVALID PUSH1 0x80 PUSH1 0x40 MSTORE CALLVALUE DUP1 ISZERO PUSH2 0xF JUMPI PUSH0 DUP1 REVERT JUMPDEST POP PUSH1 0x4 CALLDATASIZE LT PUSH2 0x3F JUMPI PUSH0 CALLDATALOAD PUSH1 0xE0 SHR DUP1 PUSH4 0x6D4CE63C EQ PUSH2 0x43 JUMPI DUP1 PUSH4 0x82A6C0AC EQ PUSH2 0x61 JUMPI DUP1 PUSH4 0xF8761376 EQ PUSH2 0x92 JUMPI JUMPDEST PUSH0 DUP1 REVERT JUMPDEST PUSH2 0x4B PUSH2 0xAE JUMP JUMPDEST PUSH1 0x40 MLOAD PUSH2 0x58 SWAP2 SWAP1 PUSH2 0x6E8 JUMP JUMPDEST PUSH1 0x40 MLOAD DUP1 SWAP2 SUB SWAP1 RETURN JUMPDEST PUSH2 0x7B PUSH1 0x4 DUP1 CALLDATASIZE SUB DUP2 ADD SWAP1 PUSH2 0x76 SWAP2 SWAP1 PUSH2 0x7A6 JUMP JUMPDEST PUSH2 0x263 JUMP JUMPDEST PUSH1 0x40 MLOAD PUSH2 0x89 SWAP3 SWAP2 SWAP1 PUSH2 0x82C JUMP JUMPDEST PUSH1 0x40 MLOAD DUP1 SWAP2 SUB SWAP1 RETURN JUMPDEST PUSH2 0xAC PUSH1 0x4 DUP1 CALLDATASIZE SUB DUP2 ADD SWAP1 PUSH2 0xA7 SWAP2 SWAP1 PUSH2 0x98D JUMP JUMPDEST PUSH2 0x3A8 JUMP JUMPDEST STOP JUMPDEST PUSH1 0x60 PUSH0 DUP1 CALLER PUSH20 0xFFFFFFFFFFFFFFFFFFFFFFFFFFFFFFFFFFFFFFFF AND PUSH20 0xFFFFFFFFFFFFFFFFFFFFFFFFFFFFFFFFFFFFFFFF AND DUP2 MSTORE PUSH1 0x20 ADD SWAP1 DUP2 MSTORE PUSH1 0x20 ADD PUSH0 KECCAK256 DUP1 SLOAD DUP1 PUSH1 0x20 MUL PUSH1 0x20 ADD PUSH1 0x40 MLOAD SWAP1 DUP2 ADD PUSH1 0x40 MSTORE DUP1 SWAP3 SWAP2 SWAP1 DUP2 DUP2 MSTORE PUSH1 0x20 ADD PUSH0 SWAP1 JUMPDEST DUP3 DUP3 LT ISZERO PUSH2 0x25A JUMPI DUP4 DUP3 SWAP1 PUSH0 MSTORE PUSH1 0x20 PUSH0 KECCAK256 SWAP1 PUSH1 0x2 MUL ADD PUSH1 0x40 MLOAD DUP1 PUSH1 0x40 ADD PUSH1 0x40 MSTORE SWAP1 DUP2 PUSH0 DUP3 ADD DUP1 SLOAD PUSH2 0x13B SWAP1 PUSH2 0xA30 JUMP JUMPDEST DUP1 PUSH1 0x1F ADD PUSH1 0x20 DUP1 SWAP2 DIV MUL PUSH1 0x20 ADD PUSH1 0x40 MLOAD SWAP1 DUP2 ADD PUSH1 0x40 MSTORE DUP1 SWAP3 SWAP2 SWAP1 DUP2 DUP2 MSTORE PUSH1 0x20 ADD DUP3 DUP1 SLOAD PUSH2 0x167 SWAP1 PUSH2 0xA30 JUMP JUMPDEST DUP1 ISZERO PUSH2 0x1B2 JUMPI DUP1 PUSH1 0x1F LT PUSH2 0x189 JUMPI PUSH2 0x100 DUP1 DUP4 SLOAD DIV MUL DUP4 MSTORE SWAP2 PUSH1 0x20 ADD SWAP2 PUSH2 0x1B2 JUMP JUMPDEST DUP3 ADD SWAP2 SWAP1 PUSH0 MSTORE PUSH1 0x20 PUSH0 KECCAK256 SWAP1 JUMPDEST DUP2 SLOAD DUP2 MSTORE SWAP1 PUSH1 0x1 ADD SWAP1 PUSH1 0x20 ADD DUP1 DUP4 GT PUSH2 0x195 JUMPI DUP3 SWAP1 SUB PUSH1 0x1F AND DUP3 ADD SWAP2 JUMPDEST POP POP POP POP POP DUP2 MSTORE PUSH1 0x20 ADD PUSH1 0x1 DUP3 ADD DUP1 SLOAD PUSH2 0x1CB SWAP1 PUSH2 0xA30 JUMP JUMPDEST DUP1 PUSH1 0x1F ADD PUSH1 0x20 DUP1 SWAP2 DIV MUL PUSH1 0x20 ADD PUSH1 0x40 MLOAD SWAP1 DUP2 ADD PUSH1 0x40 MSTORE DUP1 SWAP3 SWAP2 SWAP1 DUP2 DUP2 MSTORE PUSH1 0x20 ADD DUP3 DUP1 SLOAD PUSH2 0x1F7 SWAP1 PUSH2 0xA30 JUMP JUMPDEST DUP1 ISZERO PUSH2 0x242 JUMPI DUP1 PUSH1 0x1F LT PUSH2 0x219 JUMPI PUSH2 0x100 DUP1 DUP4 SLOAD DIV MUL DUP4 MSTORE SWAP2 PUSH1 0x20 ADD SWAP2 PUSH2 0x242 JUMP JUMPDEST DUP3 ADD SWAP2 SWAP1 PUSH0 MSTORE PUSH1 0x20 PUSH0 KECCAK256 SWAP1 JUMPDEST DUP2 SLOAD DUP2 MSTORE SWAP1 PUSH1 0x1 ADD SWAP1 PUSH1 0x20 ADD DUP1 DUP4 GT PUSH2 0x225 JUMPI DUP3 SWAP1 SUB PUSH1 0x1F AND DUP3 ADD SWAP2 JUMPDEST POP POP POP POP POP DUP2 MSTORE POP POP DUP2 MSTORE PUSH1 0x20 ADD SWAP1 PUSH1 0x1 ADD SWAP1 PUSH2 0x10B JUMP JUMPDEST POP POP POP POP SWAP1 POP SWAP1 JUMP JUMPDEST PUSH0 PUSH1 0x20 MSTORE DUP2 PUSH0 MSTORE PUSH1 0x40 PUSH0 KECCAK256 DUP2 DUP2 SLOAD DUP2 LT PUSH2 0x27B JUMPI PUSH0 DUP1 REVERT JUMPDEST SWAP1 PUSH0 MSTORE PUSH1 0x20 PUSH0 KECCAK256 SWAP1 PUSH1 0x2 MUL ADD PUSH0 SWAP2 POP SWAP2 POP POP DUP1 PUSH0 ADD DUP1 SLOAD PUSH2 0x29B SWAP1 PUSH2 0xA30 JUMP JUMPDEST DUP1 PUSH1 0x1F ADD PUSH1 0x20 DUP1 SWAP2 DIV MUL PUSH1 0x20 ADD PUSH1 0x40 MLOAD SWAP1 DUP2 ADD PUSH1 0x40 MSTORE DUP1 SWAP3 SWAP2 SWAP1 DUP2 DUP2 MSTORE PUSH1 0x20 ADD DUP3 DUP1 SLOAD PUSH2 0x2C7 SWAP1 PUSH2 0xA30 JUMP JUMPDEST DUP1 ISZERO PUSH2 0x312 JUMPI DUP1 PUSH1 0x1F LT PUSH2 0x2E9 JUMPI PUSH2 0x100 DUP1 DUP4 SLOAD DIV MUL DUP4 MSTORE SWAP2 PUSH1 0x20 ADD SWAP2 PUSH2 0x312 JUMP JUMPDEST DUP3 ADD SWAP2 SWAP1 PUSH0 MSTORE PUSH1 0x20 PUSH0 KECCAK256 SWAP1 JUMPDEST DUP2 SLOAD DUP2 MSTORE SWAP1 PUSH1 0x1 ADD SWAP1 PUSH1 0x20 ADD DUP1 DUP4 GT PUSH2 0x2F5 JUMPI DUP3 SWAP1 SUB PUSH1 0x1F AND DUP3 ADD SWAP2 JUMPDEST POP POP POP POP POP SWAP1 DUP1 PUSH1 0x1 ADD DUP1 SLOAD PUSH2 0x327 SWAP1 PUSH2 0xA30 JUMP JUMPDEST DUP1 PUSH1 0x1F ADD PUSH1 0x20 DUP1 SWAP2 DIV MUL PUSH1 0x20 ADD PUSH1 0x40 MLOAD SWAP1 DUP2 ADD PUSH1 0x40 MSTORE DUP1 SWAP3 SWAP2 SWAP1 DUP2 DUP2 MSTORE PUSH1 0x20 ADD DUP3 DUP1 SLOAD PUSH2 0x353 SWAP1 PUSH2 0xA30 JUMP JUMPDEST DUP1 ISZERO PUSH2 0x39E JUMPI DUP1 PUSH1 0x1F LT PUSH2 0x375 JUMPI PUSH2 0x100 DUP1 DUP4 SLOAD DIV MUL DUP4 MSTORE SWAP2 PUSH1 0x20 ADD SWAP2 PUSH2 0x39E JUMP JUMPDEST DUP3 ADD SWAP2 SWAP1 PUSH0 MSTORE PUSH1 0x20 PUSH0 KECCAK256 SWAP1 JUMPDEST DUP2 SLOAD DUP2 MSTORE SWAP1 PUSH1 0x1 ADD SWAP1 PUSH1 0x20 ADD DUP1 DUP4 GT PUSH2 0x381 JUMPI DUP3 SWAP1 SUB PUSH1 0x1F AND DUP3 ADD SWAP2 JUMPDEST POP POP POP POP POP SWAP1 POP DUP3 JUMP JUMPDEST PUSH0 PUSH1 0x40 MLOAD PUSH1 0x20 ADD PUSH2 0x3B8 SWAP1 PUSH2 0xAB4 JUMP JUMPDEST PUSH1 0x40 MLOAD PUSH1 0x20 DUP2 DUP4 SUB SUB DUP2 MSTORE SWAP1 PUSH1 0x40 MSTORE DUP1 MLOAD SWAP1 PUSH1 0x20 ADD KECCAK256 DUP4 PUSH1 0x40 MLOAD PUSH1 0x20 ADD PUSH2 0x3DF SWAP2 SWAP1 PUSH2 0xAF8 JUMP JUMPDEST PUSH1 0x40 MLOAD PUSH1 0x20 DUP2 DUP4 SUB SUB DUP2 MSTORE SWAP1 PUSH1 0x40 MSTORE DUP1 MLOAD SWAP1 PUSH1 0x20 ADD KECCAK256 EQ SWAP1 POP PUSH0 PUSH1 0x40 MLOAD PUSH1 0x20 ADD PUSH2 0x408 SWAP1 PUSH2 0xB58 JUMP JUMPDEST PUSH1 0x40 MLOAD PUSH1 0x20 DUP2 DUP4 SUB SUB DUP2 MSTORE SWAP1 PUSH1 0x40 MSTORE DUP1 MLOAD SWAP1 PUSH1 0x20 ADD KECCAK256 DUP5 PUSH1 0x40 MLOAD PUSH1 0x20 ADD PUSH2 0x42F SWAP2 SWAP1 PUSH2 0xAF8 JUMP JUMPDEST PUSH1 0x40 MLOAD PUSH1 0x20 DUP2 DUP4 SUB SUB DUP2 MSTORE SWAP1 PUSH1 0x40 MSTORE DUP1 MLOAD SWAP1 PUSH1 0x20 ADD KECCAK256 EQ SWAP1 POP DUP2 DUP1 PUSH2 0x451 JUMPI POP DUP1 JUMPDEST PUSH2 0x490 JUMPI PUSH1 0x40 MLOAD PUSH32 0x8C379A000000000000000000000000000000000000000000000000000000000 DUP2 MSTORE PUSH1 0x4 ADD PUSH2 0x487 SWAP1 PUSH2 0xBDC JUMP JUMPDEST PUSH1 0x40 MLOAD DUP1 SWAP2 SUB SWAP1 REVERT JUMPDEST PUSH0 DUP4 MLOAD SUB PUSH2 0x4D3 JUMPI PUSH1 0x40 MLOAD PUSH32 0x8C379A000000000000000000000000000000000000000000000000000000000 DUP2 MSTORE PUSH1 0x4 ADD PUSH2 0x4CA SWAP1 PUSH2 0xC44 JUMP JUMPDEST PUSH1 0x40 MLOAD DUP1 SWAP2 SUB SWAP1 REVERT JUMPDEST PUSH0 DUP1 CALLER PUSH20 0xFFFFFFFFFFFFFFFFFFFFFFFFFFFFFFFFFFFFFFFF AND PUSH20 0xFFFFFFFFFFFFFFFFFFFFFFFFFFFFFFFFFFFFFFFF AND DUP2 MSTORE PUSH1 0x20 ADD SWAP1 DUP2 MSTORE PUSH1 0x20 ADD PUSH0 KECCAK256 PUSH1 0x40 MLOAD DUP1 PUSH1 0x40 ADD PUSH1 0x40 MSTORE DUP1 DUP7 DUP2 MSTORE PUSH1 0x20 ADD DUP6 DUP2 MSTORE POP SWAP1 DUP1 PUSH1 0x1 DUP2 SLOAD ADD DUP1 DUP3 SSTORE DUP1 SWAP2 POP POP PUSH1 0x1 SWAP1 SUB SWAP1 PUSH0 MSTORE PUSH1 0x20 PUSH0 KECCAK256 SWAP1 PUSH1 0x2 MUL ADD PUSH0 SWAP1 SWAP2 SWAP1 SWAP2 SWAP1 SWAP2 POP PUSH0 DUP3 ADD MLOAD DUP2 PUSH0 ADD SWAP1 DUP2 PUSH2 0x55D SWAP2 SWAP1 PUSH2 0xDFF JUMP JUMPDEST POP PUSH1 0x20 DUP3 ADD MLOAD DUP2 PUSH1 0x1 ADD SWAP1 DUP2 PUSH2 0x573 SWAP2 SWAP1 PUSH2 0xDFF JUMP JUMPDEST POP POP POP POP POP POP POP JUMP JUMPDEST PUSH0 DUP2 MLOAD SWAP1 POP SWAP2 SWAP1 POP JUMP JUMPDEST PUSH0 DUP3 DUP3 MSTORE PUSH1 0x20 DUP3 ADD SWAP1 POP SWAP3 SWAP2 POP POP JUMP JUMPDEST PUSH0 DUP2 SWAP1 POP PUSH1 0x20 DUP3 ADD SWAP1 POP SWAP2 SWAP1 POP JUMP JUMPDEST PUSH0 DUP2 MLOAD SWAP1 POP SWAP2 SWAP1 POP JUMP JUMPDEST PUSH0 DUP3 DUP3 MSTORE PUSH1 0x20 DUP3 ADD SWAP1 POP SWAP3 SWAP2 POP POP JUMP JUMPDEST DUP3 DUP2 DUP4 MCOPY PUSH0 DUP4 DUP4 ADD MSTORE POP POP POP JUMP JUMPDEST PUSH0 PUSH1 0x1F NOT PUSH1 0x1F DUP4 ADD AND SWAP1 POP SWAP2 SWAP1 POP JUMP JUMPDEST PUSH0 PUSH2 0x5E7 DUP3 PUSH2 0x5A5 JUMP JUMPDEST PUSH2 0x5F1 DUP2 DUP6 PUSH2 0x5AF JUMP JUMPDEST SWAP4 POP PUSH2 0x601 DUP2 DUP6 PUSH1 0x20 DUP7 ADD PUSH2 0x5BF JUMP JUMPDEST PUSH2 0x60A DUP2 PUSH2 0x5CD JUMP JUMPDEST DUP5 ADD SWAP2 POP POP SWAP3 SWAP2 POP POP JUMP JUMPDEST PUSH0 PUSH1 0x40 DUP4 ADD PUSH0 DUP4 ADD MLOAD DUP5 DUP3 SUB PUSH0 DUP7 ADD MSTORE PUSH2 0x62F DUP3 DUP3 PUSH2 0x5DD JUMP JUMPDEST SWAP2 POP POP PUSH1 0x20 DUP4 ADD MLOAD DUP5 DUP3 SUB PUSH1 0x20 DUP7 ADD MSTORE PUSH2 0x649 DUP3 DUP3 PUSH2 0x5DD JUMP JUMPDEST SWAP2 POP POP DUP1 SWAP2 POP POP SWAP3 SWAP2 POP POP JUMP JUMPDEST PUSH0 PUSH2 0x661 DUP4 DUP4 PUSH2 0x615 JUMP JUMPDEST SWAP1 POP SWAP3 SWAP2 POP POP JUMP JUMPDEST PUSH0 PUSH1 0x20 DUP3 ADD SWAP1 POP SWAP2 SWAP1 POP JUMP JUMPDEST PUSH0 PUSH2 0x67F DUP3 PUSH2 0x57C JUMP JUMPDEST PUSH2 0x689 DUP2 DUP6 PUSH2 0x586 JUMP JUMPDEST SWAP4 POP DUP4 PUSH1 0x20 DUP3 MUL DUP6 ADD PUSH2 0x69B DUP6 PUSH2 0x596 JUMP JUMPDEST DUP1 PUSH0 JUMPDEST DUP6 DUP2 LT ISZERO PUSH2 0x6D6 JUMPI DUP5 DUP5 SUB DUP10 MSTORE DUP2 MLOAD PUSH2 0x6B7 DUP6 DUP3 PUSH2 0x656 JUMP JUMPDEST SWAP5 POP PUSH2 0x6C2 DUP4 PUSH2 0x669 JUMP JUMPDEST SWAP3 POP PUSH1 0x20 DUP11 ADD SWAP10 POP POP PUSH1 0x1 DUP2 ADD SWAP1 POP PUSH2 0x69E JUMP JUMPDEST POP DUP3 SWAP8 POP DUP8 SWAP6 POP POP POP POP POP POP SWAP3 SWAP2 POP POP JUMP JUMPDEST PUSH0 PUSH1 0x20 DUP3 ADD SWAP1 POP DUP2 DUP2 SUB PUSH0 DUP4 ADD MSTORE PUSH2 0x700 DUP2 DUP5 PUSH2 0x675 JUMP JUMPDEST SWAP1 POP SWAP3 SWAP2 POP POP JUMP JUMPDEST PUSH0 PUSH1 0x40 MLOAD SWAP1 POP SWAP1 JUMP JUMPDEST PUSH0 DUP1 REVERT JUMPDEST PUSH0 DUP1 REVERT JUMPDEST PUSH0 PUSH20 0xFFFFFFFFFFFFFFFFFFFFFFFFFFFFFFFFFFFFFFFF DUP3 AND SWAP1 POP SWAP2 SWAP1 POP JUMP JUMPDEST PUSH0 PUSH2 0x742 DUP3 PUSH2 0x719 JUMP JUMPDEST SWAP1 POP SWAP2 SWAP1 POP JUMP JUMPDEST PUSH2 0x752 DUP2 PUSH2 0x738 JUMP JUMPDEST DUP2 EQ PUSH2 0x75C JUMPI PUSH0 DUP1 REVERT JUMPDEST POP JUMP JUMPDEST PUSH0 DUP2 CALLDATALOAD SWAP1 POP PUSH2 0x76D DUP2 PUSH2 0x749 JUMP JUMPDEST SWAP3 SWAP2 POP POP JUMP JUMPDEST PUSH0 DUP2 SWAP1 POP SWAP2 SWAP1 POP JUMP JUMPDEST PUSH2 0x785 DUP2 PUSH2 0x773 JUMP JUMPDEST DUP2 EQ PUSH2 0x78F JUMPI PUSH0 DUP1 REVERT JUMPDEST POP JUMP JUMPDEST PUSH0 DUP2 CALLDATALOAD SWAP1 POP PUSH2 0x7A0 DUP2 PUSH2 0x77C JUMP JUMPDEST SWAP3 SWAP2 POP POP JUMP JUMPDEST PUSH0 DUP1 PUSH1 0x40 DUP4 DUP6 SUB SLT ISZERO PUSH2 0x7BC JUMPI PUSH2 0x7BB PUSH2 0x711 JUMP JUMPDEST JUMPDEST PUSH0 PUSH2 0x7C9 DUP6 DUP3 DUP7 ADD PUSH2 0x75F JUMP JUMPDEST SWAP3 POP POP PUSH1 0x20 PUSH2 0x7DA DUP6 DUP3 DUP7 ADD PUSH2 0x792 JUMP JUMPDEST SWAP2 POP POP SWAP3 POP SWAP3 SWAP1 POP JUMP JUMPDEST PUSH0 DUP3 DUP3 MSTORE PUSH1 0x20 DUP3 ADD SWAP1 POP SWAP3 SWAP2 POP POP JUMP JUMPDEST PUSH0 PUSH2 0x7FE DUP3 PUSH2 0x5A5 JUMP JUMPDEST PUSH2 0x808 DUP2 DUP6 PUSH2 0x7E4 JUMP JUMPDEST SWAP4 POP PUSH2 0x818 DUP2 DUP6 PUSH1 0x20 DUP7 ADD PUSH2 0x5BF JUMP JUMPDEST PUSH2 0x821 DUP2 PUSH2 0x5CD JUMP JUMPDEST DUP5 ADD SWAP2 POP POP SWAP3 SWAP2 POP POP JUMP JUMPDEST PUSH0 PUSH1 0x40 DUP3 ADD SWAP1 POP DUP2 DUP2 SUB PUSH0 DUP4 ADD MSTORE PUSH2 0x844 DUP2 DUP6 PUSH2 0x7F4 JUMP JUMPDEST SWAP1 POP DUP2 DUP2 SUB PUSH1 0x20 DUP4 ADD MSTORE PUSH2 0x858 DUP2 DUP5 PUSH2 0x7F4 JUMP JUMPDEST SWAP1 POP SWAP4 SWAP3 POP POP POP JUMP JUMPDEST PUSH0 DUP1 REVERT JUMPDEST PUSH0 DUP1 REVERT JUMPDEST PUSH32 0x4E487B7100000000000000000000000000000000000000000000000000000000 PUSH0 MSTORE PUSH1 0x41 PUSH1 0x4 MSTORE PUSH1 0x24 PUSH0 REVERT JUMPDEST PUSH2 0x89F DUP3 PUSH2 0x5CD JUMP JUMPDEST DUP2 ADD DUP2 DUP2 LT PUSH8 0xFFFFFFFFFFFFFFFF DUP3 GT OR ISZERO PUSH2 0x8BE JUMPI PUSH2 0x8BD PUSH2 0x869 JUMP JUMPDEST JUMPDEST DUP1 PUSH1 0x40 MSTORE POP POP POP JUMP JUMPDEST PUSH0 PUSH2 0x8D0 PUSH2 0x708 JUMP JUMPDEST SWAP1 POP PUSH2 0x8DC DUP3 DUP3 PUSH2 0x896 JUMP JUMPDEST SWAP2 SWAP1 POP JUMP JUMPDEST PUSH0 PUSH8 0xFFFFFFFFFFFFFFFF DUP3 GT ISZERO PUSH2 0x8FB JUMPI PUSH2 0x8FA PUSH2 0x869 JUMP JUMPDEST JUMPDEST PUSH2 0x904 DUP3 PUSH2 0x5CD JUMP JUMPDEST SWAP1 POP PUSH1 0x20 DUP2 ADD SWAP1 POP SWAP2 SWAP1 POP JUMP JUMPDEST DUP3 DUP2 DUP4 CALLDATACOPY PUSH0 DUP4 DUP4 ADD MSTORE POP POP POP JUMP JUMPDEST PUSH0 PUSH2 0x931 PUSH2 0x92C DUP5 PUSH2 0x8E1 JUMP JUMPDEST PUSH2 0x8C7 JUMP JUMPDEST SWAP1 POP DUP3 DUP2 MSTORE PUSH1 0x20 DUP2 ADD DUP5 DUP5 DUP5 ADD GT ISZERO PUSH2 0x94D JUMPI PUSH2 0x94C PUSH2 0x865 JUMP JUMPDEST JUMPDEST PUSH2 0x958 DUP5 DUP3 DUP6 PUSH2 0x911 JUMP JUMPDEST POP SWAP4 SWAP3 POP POP POP JUMP JUMPDEST PUSH0 DUP3 PUSH1 0x1F DUP4 ADD SLT PUSH2 0x974 JUMPI PUSH2 0x973 PUSH2 0x861 JUMP JUMPDEST JUMPDEST DUP2 CALLDATALOAD PUSH2 0x984 DUP5 DUP3 PUSH1 0x20 DUP7 ADD PUSH2 0x91F JUMP JUMPDEST SWAP2 POP POP SWAP3 SWAP2 POP POP JUMP JUMPDEST PUSH0 DUP1 PUSH1 0x40 DUP4 DUP6 SUB SLT ISZERO PUSH2 0x9A3 JUMPI PUSH2 0x9A2 PUSH2 0x711 JUMP JUMPDEST JUMPDEST PUSH0 DUP4 ADD CALLDATALOAD PUSH8 0xFFFFFFFFFFFFFFFF DUP2 GT ISZERO PUSH2 0x9C0 JUMPI PUSH2 0x9BF PUSH2 0x715 JUMP JUMPDEST JUMPDEST PUSH2 0x9CC DUP6 DUP3 DUP7 ADD PUSH2 0x960 JUMP JUMPDEST SWAP3 POP POP PUSH1 0x20 DUP4 ADD CALLDATALOAD PUSH8 0xFFFFFFFFFFFFFFFF DUP2 GT ISZERO PUSH2 0x9ED JUMPI PUSH2 0x9EC PUSH2 0x715 JUMP JUMPDEST JUMPDEST PUSH2 0x9F9 DUP6 DUP3 DUP7 ADD PUSH2 0x960 JUMP JUMPDEST SWAP2 POP POP SWAP3 POP SWAP3 SWAP1 POP JUMP JUMPDEST PUSH32 0x4E487B7100000000000000000000000000000000000000000000000000000000 PUSH0 MSTORE PUSH1 0x22 PUSH1 0x4 MSTORE PUSH1 0x24 PUSH0 REVERT JUMPDEST PUSH0 PUSH1 0x2 DUP3 DIV SWAP1 POP PUSH1 0x1 DUP3 AND DUP1 PUSH2 0xA47 JUMPI PUSH1 0x7F DUP3 AND SWAP2 POP JUMPDEST PUSH1 0x20 DUP3 LT DUP2 SUB PUSH2 0xA5A JUMPI PUSH2 0xA59 PUSH2 0xA03 JUMP JUMPDEST JUMPDEST POP SWAP2 SWAP1 POP JUMP JUMPDEST PUSH0 DUP2 SWAP1 POP SWAP3 SWAP2 POP POP JUMP JUMPDEST PUSH32 0x6D65646963616C00000000000000000000000000000000000000000000000000 PUSH0 DUP3 ADD MSTORE POP JUMP JUMPDEST PUSH0 PUSH2 0xA9E PUSH1 0x7 DUP4 PUSH2 0xA60 JUMP JUMPDEST SWAP2 POP PUSH2 0xAA9 DUP3 PUSH2 0xA6A JUMP JUMPDEST PUSH1 0x7 DUP3 ADD SWAP1 POP SWAP2 SWAP1 POP JUMP JUMPDEST PUSH0 PUSH2 0xABE DUP3 PUSH2 0xA92 JUMP JUMPDEST SWAP2 POP DUP2 SWAP1 POP SWAP2 SWAP1 POP JUMP JUMPDEST PUSH0 PUSH2 0xAD2 DUP3 PUSH2 0x5A5 JUMP JUMPDEST PUSH2 0xADC DUP2 DUP6 PUSH2 0xA60 JUMP JUMPDEST SWAP4 POP PUSH2 0xAEC DUP2 DUP6 PUSH1 0x20 DUP7 ADD PUSH2 0x5BF JUMP JUMPDEST DUP1 DUP5 ADD SWAP2 POP POP SWAP3 SWAP2 POP POP JUMP JUMPDEST PUSH0 PUSH2 0xB03 DUP3 DUP5 PUSH2 0xAC8 JUMP JUMPDEST SWAP2 POP DUP2 SWAP1 POP SWAP3 SWAP2 POP POP JUMP JUMPDEST PUSH32 0x70726F7065727479000000000000000000000000000000000000000000000000 PUSH0 DUP3 ADD MSTORE POP JUMP JUMPDEST PUSH0 PUSH2 0xB42 PUSH1 0x8 DUP4 PUSH2 0xA60 JUMP JUMPDEST SWAP2 POP PUSH2 0xB4D DUP3 PUSH2 0xB0E JUMP JUMPDEST PUSH1 0x8 DUP3 ADD SWAP1 POP SWAP2 SWAP1 POP JUMP JUMPDEST PUSH0 PUSH2 0xB62 DUP3 PUSH2 0xB36 JUMP JUMPDEST SWAP2 POP DUP2 SWAP1 POP SWAP2 SWAP1 POP JUMP JUMPDEST PUSH32 0x46696C652074797065206E6F74206D65646963616C206F722070726F70657274 PUSH0 DUP3 ADD MSTORE PUSH32 0x79207265636F7264000000000000000000000000000000000000000000000000 PUSH1 0x20 DUP3 ADD MSTORE POP JUMP JUMPDEST PUSH0 PUSH2 0xBC6 PUSH1 0x28 DUP4 PUSH2 0x7E4 JUMP JUMPDEST SWAP2 POP PUSH2 0xBD1 DUP3 PUSH2 0xB6C JUMP JUMPDEST PUSH1 0x40 DUP3 ADD SWAP1 POP SWAP2 SWAP1 POP JUMP JUMPDEST PUSH0 PUSH1 0x20 DUP3 ADD SWAP1 POP DUP2 DUP2 SUB PUSH0 DUP4 ADD MSTORE PUSH2 0xBF3 DUP2 PUSH2 0xBBA JUMP JUMPDEST SWAP1 POP SWAP2 SWAP1 POP JUMP JUMPDEST PUSH32 0x46696C65207061746820697320656D7074790000000000000000000000000000 PUSH0 DUP3 ADD MSTORE POP JUMP JUMPDEST PUSH0 PUSH2 0xC2E PUSH1 0x12 DUP4 PUSH2 0x7E4 JUMP JUMPDEST SWAP2 POP PUSH2 0xC39 DUP3 PUSH2 0xBFA JUMP JUMPDEST PUSH1 0x20 DUP3 ADD SWAP1 POP SWAP2 SWAP1 POP JUMP JUMPDEST PUSH0 PUSH1 0x20 DUP3 ADD SWAP1 POP DUP2 DUP2 SUB PUSH0 DUP4 ADD MSTORE PUSH2 0xC5B DUP2 PUSH2 0xC22 JUMP JUMPDEST SWAP1 POP SWAP2 SWAP1 POP JUMP JUMPDEST PUSH0 DUP2 SWAP1 POP DUP2 PUSH0 MSTORE PUSH1 0x20 PUSH0 KECCAK256 SWAP1 POP SWAP2 SWAP1 POP JUMP JUMPDEST PUSH0 PUSH1 0x20 PUSH1 0x1F DUP4 ADD DIV SWAP1 POP SWAP2 SWAP1 POP JUMP JUMPDEST PUSH0 DUP3 DUP3 SHL SWAP1 POP SWAP3 SWAP2 POP POP JUMP JUMPDEST PUSH0 PUSH1 0x8 DUP4 MUL PUSH2 0xCBE PUSH32 0xFFFFFFFFFFFFFFFFFFFFFFFFFFFFFFFFFFFFFFFFFFFFFFFFFFFFFFFFFFFFFFFF DUP3 PUSH2 0xC83 JUMP JUMPDEST PUSH2 0xCC8 DUP7 DUP4 PUSH2 0xC83 JUMP JUMPDEST SWAP6 POP DUP1 NOT DUP5 AND SWAP4 POP DUP1 DUP7 AND DUP5 OR SWAP3 POP POP POP SWAP4 SWAP3 POP POP POP JUMP JUMPDEST PUSH0 DUP2 SWAP1 POP SWAP2 SWAP1 POP JUMP JUMPDEST PUSH0 PUSH2 0xD03 PUSH2 0xCFE PUSH2 0xCF9 DUP5 PUSH2 0x773 JUMP JUMPDEST PUSH2 0xCE0 JUMP JUMPDEST PUSH2 0x773 JUMP JUMPDEST SWAP1 POP SWAP2 SWAP1 POP JUMP JUMPDEST PUSH0 DUP2 SWAP1 POP SWAP2 SWAP1 POP JUMP JUMPDEST PUSH2 0xD1C DUP4 PUSH2 0xCE9 JUMP JUMPDEST PUSH2 0xD30 PUSH2 0xD28 DUP3 PUSH2 0xD0A JUMP JUMPDEST DUP5 DUP5 SLOAD PUSH2 0xC8F JUMP JUMPDEST DUP3 SSTORE POP POP POP POP JUMP JUMPDEST PUSH0 SWAP1 JUMP JUMPDEST PUSH2 0xD44 PUSH2 0xD38 JUMP JUMPDEST PUSH2 0xD4F DUP2 DUP5 DUP5 PUSH2 0xD13 JUMP JUMPDEST POP POP POP JUMP JUMPDEST JUMPDEST DUP2 DUP2 LT ISZERO PUSH2 0xD72 JUMPI PUSH2 0xD67 PUSH0 DUP3 PUSH2 0xD3C JUMP JUMPDEST PUSH1 0x1 DUP2 ADD SWAP1 POP PUSH2 0xD55 JUMP JUMPDEST POP POP JUMP JUMPDEST PUSH1 0x1F DUP3 GT ISZERO PUSH2 0xDB7 JUMPI PUSH2 0xD88 DUP2 PUSH2 0xC62 JUMP JUMPDEST PUSH2 0xD91 DUP5 PUSH2 0xC74 JUMP JUMPDEST DUP2 ADD PUSH1 0x20 DUP6 LT ISZERO PUSH2 0xDA0 JUMPI DUP2 SWAP1 POP JUMPDEST PUSH2 0xDB4 PUSH2 0xDAC DUP6 PUSH2 0xC74 JUMP JUMPDEST DUP4 ADD DUP3 PUSH2 0xD54 JUMP JUMPDEST POP POP JUMPDEST POP POP POP JUMP JUMPDEST PUSH0 DUP3 DUP3 SHR SWAP1 POP SWAP3 SWAP2 POP POP JUMP JUMPDEST PUSH0 PUSH2 0xDD7 PUSH0 NOT DUP5 PUSH1 0x8 MUL PUSH2 0xDBC JUMP JUMPDEST NOT DUP1 DUP4 AND SWAP2 POP POP SWAP3 SWAP2 POP POP JUMP JUMPDEST PUSH0 PUSH2 0xDEF DUP4 DUP4 PUSH2 0xDC8 JUMP JUMPDEST SWAP2 POP DUP3 PUSH1 0x2 MUL DUP3 OR SWAP1 POP SWAP3 SWAP2 POP POP JUMP JUMPDEST PUSH2 0xE08 DUP3 PUSH2 0x5A5 JUMP JUMPDEST PUSH8 0xFFFFFFFFFFFFFFFF DUP2 GT ISZERO PUSH2 0xE21 JUMPI PUSH2 0xE20 PUSH2 0x869 JUMP JUMPDEST JUMPDEST PUSH2 0xE2B DUP3 SLOAD PUSH2 0xA30 JUMP JUMPDEST PUSH2 0xE36 DUP3 DUP3 DUP6 PUSH2 0xD76 JUMP JUMPDEST PUSH0 PUSH1 0x20 SWAP1 POP PUSH1 0x1F DUP4 GT PUSH1 0x1 DUP2 EQ PUSH2 0xE67 JUMPI PUSH0 DUP5 ISZERO PUSH2 0xE55 JUMPI DUP3 DUP8 ADD MLOAD SWAP1 POP JUMPDEST PUSH2 0xE5F DUP6 DUP3 PUSH2 0xDE4 JUMP JUMPDEST DUP7 SSTORE POP PUSH2 0xEC6 JUMP JUMPDEST PUSH1 0x1F NOT DUP5 AND PUSH2 0xE75 DUP7 PUSH2 0xC62 JUMP JUMPDEST PUSH0 JUMPDEST DUP3 DUP2 LT ISZERO PUSH2 0xE9C JUMPI DUP5 DUP10 ADD MLOAD DUP3 SSTORE PUSH1 0x1 DUP3 ADD SWAP2 POP PUSH1 0x20 DUP6 ADD SWAP5 POP PUSH1 0x20 DUP2 ADD SWAP1 POP PUSH2 0xE77 JUMP JUMPDEST DUP7 DUP4 LT ISZERO PUSH2 0xEB9 JUMPI DUP5 DUP10 ADD MLOAD PUSH2 0xEB5 PUSH1 0x1F DUP10 AND DUP3 PUSH2 0xDC8 JUMP JUMPDEST DUP4 SSTORE POP JUMPDEST PUSH1 0x1 PUSH1 0x2 DUP9 MUL ADD DUP9 SSTORE POP POP POP JUMPDEST POP POP POP POP POP POP JUMP INVALID LOG2 PUSH5 0x6970667358 0x22 SLT KECCAK256 SWAP1 LT PUSH11 0x7E9468967F63B322C10C3C 0x2B 0xB2 0xB6 0x4B 0x29 BALANCE 0xEA PUSH23 0x30B2AC979412E4759B8464736F6C634300081A00330000 "
				},
				"gasEstimates": {
					"creation": {
						"codeDepositCost": "768800",
						"executionCost": "infinite",
						"totalCost": "infinite"
					},
					"external": {
						"get()": "infinite",
						"push(string,string)": "infinite",
						"records(address,uint256)": "infinite"
					}
				},
				"methodIdentifiers": {
					"get()": "6d4ce63c",
					"push(string,string)": "f8761376",
					"records(address,uint256)": "82a6c0ac"
				}
			},
			"storageLayout": {
				"storage": [
					{
						"astId": 12,
						"contract": "contracts/upload.sol:upload",
						"label": "records",
						"offset": 0,
						"slot": "0",
						"type": "t_mapping(t_address,t_array(t_struct(Record)6_storage)dyn_storage)"
					}
				],
				"types": {
					"t_address": {
						"encoding": "inplace",
						"label": "address",
						"numberOfBytes": "20"
					},
					"t_array(t_struct(Record)6_storage)dyn_storage": {
						"base": "t_struct(Record)6_storage",
						"encoding": "dynamic_array",
						"label": "struct upload.Record[]",
						"numberOfBytes": "32"
					},
					"t_mapping(t_address,t_array(t_struct(Record)6_storage)dyn_storage)": {
						"encoding": "mapping",
						"key": "t_address",
						"label": "mapping(address => struct upload.Record[])",
						"numberOfBytes": "32",
						"value": "t_array(t_struct(Record)6_storage)dyn_storage"
					},
					"t_string_storage": {
						"encoding": "bytes",
						"label": "string",
						"numberOfBytes": "32"
					},
					"t_struct(Record)6_storage": {
						"encoding": "inplace",
						"label": "struct upload.Record",
						"members": [
							{
								"astId": 3,
								"contract": "contracts/upload.sol:upload",
								"label": "recordType",
								"offset": 0,
								"slot": "0",
								"type": "t_string_storage"
							},
							{
								"astId": 5,
								"contract": "contracts/upload.sol:upload",
								"label": "recordIPFSFilePath",
								"offset": 0,
								"slot": "1",
								"type": "t_string_storage"
							}
						],
						"numberOfBytes": "64"
					}
				}
			},
			"userdoc": {
				"kind": "user",
				"methods": {},
				"version": 1
			}
		}
	}
}